:0A000000562F000000000000002849
:10000A000F30FC004730FD00FD0B0928FC0B0928C6
:06001A00000000000800D8
:0A0020002130FD00FD0B122808003E
:06002A00000000000800C8
:0E003000831203132A088A00290882000800A0
:10003E0083120313FB01FA01F9018030F800F10C71
:10004E00F00C031C33287408F90775080318750F94
:10005E00FA070318FB0A0310F01F3B287408FA076F
:10006E0075080318750FFB07FB0CFA0CF90CF80C4E
:10007E00031C26287B08F3007A08F2007908F100A9
:06008E007808F0000800F4
:1000940083120313321DA528B21C6028321C552874
:1000A4002D30F00057282B30F000560884007008DB
:1000B4008000D60AAD0A0319AE0A9028321C6B28B8
:1000C4005608840020308000D60AAD0A0319AE0A0F
:1000D4009028C0303205F10033080839F200720864
:1000E400083A031D772880307106031D90285608AE
:1000F400840030308000D60AAD0A0319AE0AB21E5D
:1001040086285830F00088287830F000560884009B
:1001140070088000D60AAD0A0319AE0A2B082C0415
:100124000319A4285608840030308000D60AAD0A8A
:100134000319AE0A0130AB02031CAC032B082C04D8
:10014400031D942813292B082C040319BB28B21966
:10015400BB285608840020308000D60AAD0A031953
:10016400AE0A0130AB02031CAC032B082C04031DA4
:10017400AB28B21CCD28321CC2282D30F000C42874
:100184002B30F0005608840070088000D60AAD0AAF
:100194000319AE0AD728321CD72856088400203009
:1001A4008000D60AAD0A0319AE0AC0303205F10048
:1001B40033080839F2007208083A031DE328403076
:1001C4007106031DEE285608840030308000D60ADC
:1001D400AD0A0319AE0A1329C0303205F100330801
:1001E4000839F2007208083A031DFA2880307106B3
:1001F400031D13295608840030308000D60AAD0A46
:100204000319AE0AB21E09295830F0000B297830C0
:10021400F0005608840070088000D60AAD0A03195D
:10022400AE0A8030F000803031067002031D1C29B4
:1002340030082F0203182729560884003030800024
:10024400D60AAD0A0319AE0A13295608F0000800AD
:1002540083120313F801F9011030FC00710DF80D3D
:10026400F90D7408F8027508031C750FF9020318D8
:1002740042297408F80775080318750FF907031065
:0A028400F00DF10DFC0B302908000D
:10028E00632983120313B215D60A0319D70AA029BC
:10029E003214D60A0319D70AA029B214D60A0319A2
:1002AE00D70AA029B315D60A0319D70AA0293215E1
:1002BE00D60A0319D70AA0295608A9005708AA007A
:1002CE0018208A110A12F10071082D3A03194829D3
:1002DE005608A9005708AA0018208A110A12F10020
:1002EE007108203A03194F295608A9005708AA0089
:1002FE0018208A110A12F10071082B3A0319542999
:10030E005608A9005708AA0018208A110A12F100EF
:10031E007108233A031959295608A9005708AA004B
:10032E0018208A110A12F1007108303A03195E2959
:10033E00A1294729B21CA4293210B21DA7293211B6
:0A034E005608F0005708F1000800FF
:1003580083120313D61BB2298611B3298615561B9F
:10036800B7290611B8290615D61ABC298610BD2941
:100378008614561AC1290610C22906143418C6292B
:100388000616C7290612861615208612D619CE29F2
:100398008611CF2986155619D3290611D429061591
:1003A800D618D8298610D92986145618DD2906109A
:1003B800DE2906143418E2290616E32906128616E1
:1003C80015208612341CEA290520EB291020080084
:1003D800831203135608393C031CF929303056029E
:0E03E800031CF9290130F000FA29F001080089
:1003F60083120313AD01AE01B201B3014A08F00046
:100406004B08F100CA0A0319CB0A7008A900710843
:10041600AA0018208A110A12F0007008AF007008AE
:100426000319952E2F08253A0319222A4908840014
:100436002F088000C90AAD0A0319AE0A012AAB01CA
:10044600AC01B201B3014A08D6004B08D7004721D8
:100456007008CA007108CB007008A9007108AA00CC
:1004660018208A110A12F0000030F1007008D60038
:10047600EC2170080319712AAB01AC012B08F000BE
:100486002C08F1000A30F4000030F5001F204A085D
:10049600A9004B08AA0018208A110A12F200720855
:1004A6007007AB0071080318013EAC003030AB0298
:1004B600031CAC03CA0A0319CB0A4A08A9004B0855
:1004C600AA0018208A110A12F0000030F100700804
:1004D600D600EC217008031D412A942A4A08A90077
:1004E6004B08AA0018208A110A12F10071082A3A4C
:1004F600031D942A4C0884000008F000700884004C
:100506000008AB00840A0008AC004C0884000230E6
:100516000007F0004C08840070088000CA0A03191E
:10052600CB0A4A08A9004B08AA0018208A110A1209
:10053600F10071082E3A031DFA2ACA0A0319CB0ADA
:100546004A08A9004B08AA0018208A110A12F100CD
:1005560071082A3A031DC72A4C0884000008F000D7
:10056600700884000008B000840A0008B1004C0836
:10057600840002300007F0004C08840070088000F8
:10058600CA0A0319CB0AF92AB001B1014A08A9001F
:100596004B08AA0018208A110A12F0000030F10058
:1005A6007008D600EC2170080319F92A3008F0000B
:1005B6003108F1000A30F4000030F5001F204A0827
:1005C600A9004B08AA0018208A110A12F200720824
:1005D6007007B00071080318013EB1003030B00258
:1005E600031CB103CA0A0319CB0AC92AFC2AB001A3
:1005F600B1014A08F0004B08F100CA0A0319CB0AF8
:100606007008A9007108AA0018208A110A12AF0002
:10061600DD2B2D08F0002E08F100080032170A2CF9
:100626000A2CB216B2170A2C4C0884000008F000F7
:10063600700884000008CD004C088400000AF00011
:100646004C088400700880004D08003A031D362BC4
:100656006E30D0007530D1006C30D2006C30D300D3
:10066600D4015030CD00CE01CF014E084D07840095
:10067600000803194B2B4E08013EF000003003180A
:10068600013E4F07F1007008CE007108CF00382BED
:100696003008310403195B2B4F083102031D552B1B
:1006A6004E08300203185B2B3008CE003108CF000D
:1006B6002C084F02031D612B2B084E0203186A2BD0
:1006C6004E08AB02031CAC034F08AC026C2BAB010B
:1006D600AC01B219832B2B08F0002C08F100013075
:1006E600AB02031CAC03700871040319832B490881
:1006F600840020308000C90AAD0A0319AE0A6E2BA9
:100706004E08F2004F08F30001304E02F0000030B0
:10071600031C013E4F02F1007008CE007108CF00A5
:10072600720873040319A82B4D0884000008F00012
:100736004908840070088000C90A4D0AF000700854
:10074600CD00AD0A0319AE0A832BB21DBF2B2B08B1
:10075600F0002C08F1000130AB02031CAC0370085A
:1007660071040319BF2B4908840020308000C90A90
:10077600AD0A0319AE0AAA2B012A4C088400000808
:10078600F000700884000008AF004C0884000230B6
:100796000007F0004C088400700880002F30CD0060
:1007A6000130CE000030CF004B2BC030B2040030F9
:1007B600B3040A2C2F08003A03190C2B2F086C3AA5
:1007C6000319112B2F086F3A0319112B2F08643ABE
:1007D6000319132B2F08693A0319132B2F08703AA4
:1007E6000319142B2F08583A0319142B2F08783A9B
:1007F6000319152B2F08733A0319172B2F08633A81
:100806000319C02B2F08753A0319D82BD12BC030EA
:100816003205F1003308F2000030F20500307206AE
:10082600031D172C00307106031D492C4C0884004B
:100836000008F000700884000008CD00840A000853
:10084600CE004C08840002300007F0004C088400FB
:100856007008800080304E06F00080307002031D64
:10086600362C00304D020318482C0330B2040030F9
:10087600B3044D08003CF0004E08031C013EF10194
:10088600F1027008CD007108CE005D2C4C08840082
:100896000008F000700884000008CD00840A0008F3
:1008A600CE004C08840002300007F0004C0884009B
:1008B6007008800000303106031D632C00303006BE
:1008C600031D702C00304E06031D6B2C00304D06A8
:1008D600031D702CB00A0319B10AC0303205F000AE
:1008E6007008F400FD2C0130AF002F08053A0319FB
:1008F600A22C2F08F000F101F00DF10D7010D83088
:10090600F00707300318013EF1077008A9007108C7
:10091600AA0018208A110A12F200A90A0319AA0AC3
:1009260018208A110A12F30073084E02031D9D2C2B
:1009360072084D020318A02CA22CAF0A782C0D2D9C
:100946000130AF002F08043A0319CF2C2F08F0000E
:10095600F101F00DF10D7010E230F00707300318C9
:10096600013EF1077008A9007108AA0018208A1133
:100976000A12F200A90A0319AA0A18208A110A12F1
:10098600F30073084E02031DCA2C72084D020318A9
:10099600CD2CCF2CAF0AA52C0D2D0130AF002F0882
:1009A600063A0319FC2C2F08F000F101F00DF10DA9
:1009B6007010CC30F00707300318013EF1077008BD
:1009C600A9007108AA0018208A110A12F200A90AC1
:1009D6000319AA0A18208A110A12F30073084E0294
:1009E600031DF72C72084D020318FA2CFC2CAF0AD3
:1009F600D22C0D2D7408003A0319762C7408C03ACF
:100A06000319762C7408803A0319A32C7408403A0B
:100A16000319D02C8030F000803031067002031D9F
:100A2600162D30082F0203181B2D3008AF00292D74
:100A360080303106F00080307002031D242D2F080F
:100A460030020318292D2F08B000B1012B082C0401
:100A560003193C2D03303205F0003308F100003055
:100A6600F1057008710403193C2D0130AB02031C1B
:100A7600AC0380303106F00080302C067002031D76
:100A8600462D2B08300203184F2D3008AB02031CED
:100A9600AC033108AC02512DAB01AC01C4303205B8
:100AA600F10033080839F2007208083A031D5D2D7B
:100AB60040307106031D682D2B082C040319672D81
:100AC6000130AB02031CAC03882DC0303205F100A7
:100AD60033080839F2007208083A031D742D803075
:100AE6007106031D882D8030F00080302C067002C0
:100AF600031D7F2D2B08023C0318862D0230AB0206
:100B0600031CAC03882DAB01AC014908D6004A2072
:100B16007008C9003008F0003108F1000130B00259
:100B2600031CB103700871040319772EC030320517
:100B3600F0007008D5005E2E3008F0003108F10094
:100B4600F00DF10D7010D830F00707300318013E94
:100B5600F1077008A9007108AA0018208A110A1264
:100B6600F400A90A0319AA0A18208A110A12F50024
:100B76004D08F0004E08F1002A210A30F40000303A
:100B8600F5002A217808F0007908F1003030700766
:100B9600AF006E2EB21E032E3008F0003108F100B1
:100BA600F00DF10D7010E230F00707300318013E2A
:100BB600F1077008A9007108AA0018208A110A1204
:100BC600F400A90A0319AA0A18208A110A12F500C4
:100BD6004D08F0004E08F1002A210F30F0050030D4
:100BE600F105AA30F00707300318013EF107700837
:100BF600A9007108AA0018208A110A12AF00362E21
:100C06003008F0003108F100F00DF10D7010E230FF
:100C1600F00707300318013EF1077008A9007108B4
:100C2600AA0018208A110A12F400A90A0319AA0AAE
:100C360018208A110A12F5004D08F0004E08F1003E
:100C46002A210F30F0050030F105BB30F0070730E0
:100C56000318013EF1077008A9007108AA001820C0
:100C66008A110A12AF006E2E3008F0003108F1002A
:100C7600F00DF10D7010CC30F00707300318013E6F
:100C8600F1077008A9007108AA0018208A110A1233
:100C9600F400A90A0319AA0A18208A110A12F500F3
:100CA6004D08F0004E08F1002A2107307005AF000C
:100CB6003030AF076E2E5508003A03199F2D5508A0
:100CC600C03A03199F2D5508803A0319CD2D5508B2
:100CD600403A0319372E490884002F088000C90AB4
:100CE600AD0A0319AE0A8D2DB21D942E8030F00088
:100CF60080302C067002031D822E2B08003C031840
:100D0600942E4908840020308000C90AAD0A0319D0
:100D1600AE0A0130AB02031CAC032B082C04031DE6
:0E0D2600842E012A2D08F0002E08F10008008E
:100D34008312031334104908D600AC21341408007C
:100D440018208A110A128000840AA90A0319AA0A1F
:080D5400F003031DA22E0800AC
:100D5C00443083120313C8004108C9004208CA007A
:100D6C004308CB004830CC00FB217008C60071084A
:100D7C00C70070084107840080014608F00047084E
:040D8C00F10008006A
:100D9000831603138612061206108610061186119A
:100DA000831286120612861106118610061005207F
:100DB00005200520861406148616152086120520A7
:100DC0008616152086120520861615208612052007
:100DD0000610861615208612052086161520861206
:100DE0008610861586161520861205208611061493
:100DF00086161520861206108616152086120520E6
:100E000086161520861206148616152086120520D1
:100E100006108616152086128615061586140614E9
:0C0E2000861615208612052034140800E8
:100E2C00282F803083120313C1003B2FC030C10028
:100E3C003B2F9430C1003B2FD430C1003B2F80306E
:100E4C00C1003B2F831203134108013A0319172FDA
:100E5C004108023A03191C2F4108033A03191F2FAA
:100E6C004108043A0319222F252F4203F0004108B0
:100E7C00F0077008C1007008D600AC213410C40112
:100E8C0044084307840000080319542F44084307FF
:100E9C0084000008C9009A26C40A462F341408009E
:100EAC00433083120313A0006130A1007430A20000
:100EBC006130A3002030A4006130A5007230A60080
:100ECC006530A700A801C8260130D600AC210C3033
:100EDC00D600AC210130C1000130C2002030C3006B
:100EEC001627B501B6018030F0008030360670024E
:100EFC00031D822F3508093C031CA82F0630FB006C
:100F0C001330FC00AD30FD00FD0B8A2FFC0B8A2F3B
:100F1C00FB0B8A2F000000003730C100EA30C20002
:100F2C000730C3003508C4003608C500AE260230B1
:100F3C00C1000230C2003730C3001627B50A0319AE
:080F4C00B60A792F772FA92FB7
:100F54003034313432343334343435343634373451
:100F640038343934413442344334443445344634D7
:020F7400003447
:100F7600303431343234333434343534363437342F
:100F860038343934613462346334643465346634F5
:020F9600003425
:100F9800013400340834003440340034003402345E
:080FA8000034103400348034E1
:100FB000013400340A34003464340034E834033437
:040FC000103427348E
:100FC400013400341034003400340134003410345B
:060FD400253464340034F2
:02400E00F21F9F
:00000001FF
