:0A000000EF2A000000000000D22BE0
:08000A00FA1FF2130030080098
:10001200FB14FB1F1328FF30F300F200F100F00085
:08002200FA0DF20CFF3008009A
:10002A007B15FB1F1F280130F300F201F101F001DB
:08003A00FA0DF20CFF30080082
:0E004200F201F101F001F801F30100300800B5
:10005000A0017208031D3D287108F2007008F1002C
:10006000F001A0157208031D3D287108F200F1018E
:10007000A0112016720803194B282008F302031D53
:10008000031C4F280310F21B5328F00DF10DF20D45
:10009000F30B43284F280130FC0021205628023062
:0E00A000FC00152056280430FC000520080046
:1000AE007C188D28FC185E287C19AC285728A001D6
:1000BE007208031D7E287108F2007008F10078089E
:1000CE00F000F801A0157208031D7E287108F200D9
:1000DE007008F100F001A01120167208031D7E2891
:1000EE007108F200F101A01572080319A02820086A
:1000FE00F302031D031CA4280310F21B8D28F80D18
:10010E00F00DF10DF20DF30B8428A4287B1B701C4F
:10011E00A828F81FA828F00A0319F10A0319F20AF1
:10012E00031DA828F20CF10CF00CF30A0319AC28ED
:10013E00A8280130FC002120AF280230FC00152039
:10014E00AF280430FC000520AF280830FC00092041
:04015E000000080095
:0E0162008312031327088A0026088200080073
:06017000FB15FF30080042
:100176008312031372087606A000F801F9017308CA
:100186007702031CDE287708FD007308F7007D0858
:10019600F3007608FD007208F6007D08F200750887
:1001A600FD007108F5007D08F1007408FD00700877
:1001B600F4007D08F0007708031957297208FA0041
:1001C600F217F61777087302F7000319112908309A
:1001D6007702031C0729F7007408F9007508F40074
:1001E6007608F500F60108307702031C0729F700A8
:1001F6007408F9007508F400F50108307702031C4D
:1002060007297A08F20057297708031911290310DC
:10021600F60CF50CF40CF90CF70B0A29A01F1E2995
:10022600F909F409F509F609F90A0319F40A031993
:10023600F50A0319F60A7908F80774080318740F03
:10024600F00775080318750FF10776080318760F7F
:10025600F207A01B3729031C4729F20CF10CF00CFE
:10026600F80CF30F4729532903184B29F809F0090D
:10027600F109F209F80A0319F00A0319F10A031938
:10028600F20A8030FA064F290130FC00572059291E
:100296000230FC00572059290430FC002820592937
:1002A6000830FC00092059290030FC000000080035
:1002B6007B14FB1F6629F201FA1FFF30F200F100E2
:0A02C600F000FA0DF20CFF30080002
:0C02D000831203138030F606BB200800E8
:1002DC007408003A031D87297508003A031D872905
:1002EC007608003A031D87297708003A031D8729F1
:1002FC00FF30F000FF30F1007F30F200FF30F300F0
:10030C0008008312031377080319162A73080319BC
:10031C00192A720876068039FA00F217F617A0012E
:10032C007208F8007108FC007008FD007408FD02EA
:10033C007508031C750FFC027608031C760FF80277
:10034C00F801FC01FD01031CB2290310F20CF10CA5
:10035C00F00CF80C0130A0007708F302031CBC2948
:10036C007E302007F30703181C2AC1297E30200792
:10037C00F307031C1F2A1830FA07FD0DFC0DF80DAE
:10038C00F00DF10DF20DA00D7408F0027508031CB0
:10039C00750FF1027608031C760FF202760DA0049D
:1003AC00201CDA297D14E5297408F0077508031858
:1003BC00750FF10776080318760AF2077D10FA0319
:1003CC001F307A05031DC3297B1B7D1C0C2A0310CF
:1003DC00F00DF10DF20DA00D7408F0027508031C60
:1003EC00750FF1027608031C760FF202760D2004CD
:1003FC000139FD070318FC0A0319F80A031D0C2A1E
:10040C00F80CFC0CFD0CF30A03191C2AFA1FF81348
:10041C007808F2007C08F1007D08F0000030212AF9
:10042C000130B820212A02302120212A0430092051
:0A043C00212A0830152000000800F6
:1004460083120313FB0173080319602A7208FA006A
:10045600F2178E30F302F31F632AF309F30A08300A
:100466007302031C462AF300F10D7208F100F20133
:1004760008307302031C462AF300F10DF1017308DC
:10048600031D03104E2A730803194E2A0310F20C9B
:10049600F10CF30B492A7B1B711C582A031C582AA2
:1004A600F10A0319F20AF21B6F2AFA1F722AF209DD
:1004B600F109F10A0319F20A722AF201F101722A0C
:1004C6007B14FB1F752AF201FA1F752AFF30F20012
:1004D600F100FA0DF20C752A0130FC00772A003083
:1004E600FC00772AFF30FC00FC0803197B2A5B21FD
:0A04F6007108F0007208F100080020
:1005000083120313FB017308031D77080319D72A0D
:1005100072087606FA007708F3077E30031C942AE7
:10052000F3020318DA2A972AF302031CDD2A720861
:10053000F8007108FC007008FD00F817F6170310AA
:10054000F201F101F0011830A0007D1CB12A7408FD
:10055000F00775080318750FF10776080318760F72
:10056000F207F20CF10CF00CF80CFC0CFD0C031073
:10057000A00BA52AF21BC12AF80DF00DF10DF20D0A
:10058000F3037B1B701CD32AF81FD32AF00A03192C
:10059000F10A0319F20A031DD32AF20CF10CF00C34
:1005A000F30A0319DA2AFA1FF2130030DF2A0130A6
:1005B0002120DF2A02300920DF2A04301520000024
:0205C000080031
:1005C200B1208A110A128000840AA60A8312031338
:0C05D2000319A70AF003031DE12A08002A
:1005DE0083120313A101A2014030A3007F30A400B7
:1005EE00023083169C00A7309D008D160B178B17BB
:1005FE0008148814081183120811081C072B2514DF
:10060E00251C662B0808003A031D662B2108F000F6
:10061E002208F1002308F2002408F3000030F40051
:10062E000030F5000030F6007F30F700BB20700878
:10063E00A1007108A2007208A3007308A40021088B
:10064E002204230424040319452B2108F000220858
:10065E00F1002308F2002408F300CD30F400CC3072
:10066E00F5004C30F6007C30F700BB207008A1007E
:10067E007108A2007208A3007308A4002108F000FC
:10068E002208F1002308F2002408F3000030F400E1
:10069E000030F5004030F6008330F7008022003045
:1006AE00F4000030F5002030F6008130F7006E21A6
:1006BE0023227008963E83169D0083122510881CF7
:1006CE00692BA514A51CC82B0808003A031DC82BBE
:1006DE000030F4000030F5000030F6007F30F700F7
:1006EE002108F0002208F1002308F2002408F3008C
:1006FE0068217008A1007108A2007208A300730897
:10070E00A40021082204230424040319A72BCD30AE
:10071E00F400CC30F5004C30F6007C30F7002108A8
:10072E00F0002208F1002308F2002408F3006821EB
:10073E007008A1007108A2007208A3007308A4003B
:10074E002108F0002208F1002308F2002408F3002B
:10075E000030F4000030F5004030F6008330F70032
:10076E0080220030F4000030F5002030F600813099
:10077E00F7006E2123227008963E83169D00831289
:10078E00A51083161C1FCE2B83120811D02B83129B
:06079E000815C82BD12B49
:1007A400FF00030E8301A8000A08A9008A018B1325
:1007B40083168D1EE22B04308312880683168D1255
:1007C4008B17831229088A00280E8300FF0E7F0EE0
:0207D40009001A
:02400E00F21F9F
:00000001FF
