:0A000000982F000000000000002807
:10000A000F30FC004730FD00FD0B0928FC0B0928C6
:06001A00000000000800D8
:0A0020002130FD00FD0B122808003E
:06002A00000000000800C8
:0E0030008312031321088A00200882000800B2
:10003E00831203134B08393C031C2C2830304B021F
:0E004E00031C2C280130F0002D28F0010800C2
:10005C0083120313CB1B34288611352886154B1BB2
:10006C00392806113A280615CB1A3E2886103F2847
:10007C0086144B1A43280610442806142B184828BB
:10008C00061649280612861615208612CB195028FA
:10009C008611512886154B19552806115628061518
:1000AC00CB185A2886105B2886144B185F2806102C
:1000BC00602806142B186428061665280612861666
:1000CC00152086122B1C6C2805206D28102008008A
:1000DC008A2883120313A315CB0A0319CC0AC72849
:1000EC002314CB0A0319CC0AC728A314CB0A03196F
:1000FC00CC0AC728A415CB0A0319CC0AC728231588
:10010C00CB0A0319CC0AC7284B08A0004C08A10045
:10011C0018208A110A12F10071082D3A03196F2860
:10012C004B08A0004C08A10018208A110A12F100FB
:10013C007108203A031976284B08A0004C08A1003E
:10014C0018208A110A12F10071082B3A03197B2826
:10015C004B08A0004C08A10018208A110A12F100CB
:10016C007108233A031980284B08A0004C08A10001
:10017C0018208A110A12F1007108303A03198528E7
:10018C00C8286E28A31CCB282310A31DCE2823110E
:0A019C004B08F0004C08F1000800C9
:1001A60083120313FB01FA01F9018030F800F10C08
:1001B600F00C031CE7287408F90775080318750F77
:1001C600FA070318FB0A0310F01FEF287408FA0752
:1001D60075080318750FFB07FB0CFA0CF90CF80CE5
:1001E600031CDA287B08F3007A08F2007908F1008C
:0601F6007808F00008008B
:1001FC0083120313231D5929A31C1429231C092919
:10020C002D30F0000B292B30F0004B0884007008C7
:10021C008000CB0AA90A0319AA0A4429231C1F2906
:10022C004B08840020308000CB0AA90A0319AA0AC3
:10023C004429C0302305F10024080839F200720863
:10024C00083A031D2B2980307106031D44294B08E5
:10025C00840030308000CB0AA90A0319AA0AA31E15
:10026C003A295830F0003C297830F0004B088400D3
:10027C0070088000CB0AA90A0319AA0A27082804C7
:10028C00031958294B08840030308000CB0AA90A86
:10029C000319AA0A0130A702031CA8032708280483
:1002AC00031D4829C7292708280403196F29A319F6
:1002BC006F294B08840020308000CB0AA90A03194F
:1002CC00AA0A0130A702031CA80327082804031D4F
:1002DC005F29A31C8129231C76292D30F000782955
:1002EC002B30F0004B08840070088000CB0AA90A60
:1002FC000319AA0A8B29231C8B294B088400203054
:10030C008000CB0AA90A0319AA0AC0302305F10000
:10031C0024080839F2007208083A031D9729403066
:10032C007106031DA2294B08840030308000CB0AD3
:10033C00A90A0319AA0AC729C0302305F100240809
:10034C000839F2007208083A031DAE298030710694
:10035C00031DC7294B08840030308000CB0AA90A42
:10036C000319AA0AA31EBD295830F000BF29783002
:10037C00F0004B08840070088000CB0AA90A03190E
:10038C00AA0A8030F000803026067002031DD029A6
:10039C00250822020318DB294B088400303080002A
:1003AC00CB0AA90A0319AA0AC7294B08F0000800AE
:1003BC0083120313F801F9011030FC00710DF80DD4
:1003CC00F90D7408F8027508031C750FF90203186F
:1003DC00F6297408F80775080318750FF907031048
:0A03EC00F00DF10DFC0BE4290800F0
:1003F600831203132B103E08CB002E202B1408006B
:1004060083120313A901AA01A301A4013F08F00066
:100416004008F100BF0A0319C00A7008A00071085D
:10042600A10018208A110A12F0007008A2007008B4
:1004360003199D2E2208253A03192A2A3E0884000C
:1004460022088000BE0AA90A0319AA0A092AA701D6
:10045600A801A301A4013F08CB004008CC006E20F0
:100466007008BF007108C0007008A0007108A100E4
:1004760018208A110A12F0000030F1007008CB0033
:100486001F2070080319792AA701A8012708F00080
:100496002808F1000A30F4000030F500D3203F08A8
:1004A600A0004008A10018208A110A12F200720862
:1004B6007007A70071080318013EA8003030A70294
:1004C600031CA803BF0A0319C00A3F08A00040087E
:1004D600A10018208A110A12F0000030F1007008FD
:1004E600CB001F207008031D492A9C2A3F08A00044
:1004F6004008A10018208A110A12F10071082A3A50
:10050600031D9C2A410884000008F000700884003E
:100516000008A700840A0008A800410884000230E9
:100526000007F0004108840070088000BF0A031924
:10053600C00A3F08A0004008A10018208A110A122C
:10054600F10071082E3A031D022BBF0A0319C00AD7
:100556003F08A0004008A10018208A110A12F100E5
:1005660071082A3A031DCF2A410884000008F000CA
:10057600700884000008A500840A0008A600410847
:10058600840002300007F0004108840070088000F3
:10059600BF0A0319C00A012BA501A6013F08A00046
:1005A6004008A10018208A110A12F0000030F1005C
:1005B6007008CB001F2070080319012B2508F000D6
:1005C6002608F1000A30F4000030F500D3203F0879
:1005D600A0004008A10018208A110A12F200720831
:1005E6007007A50071080318013EA6003030A50269
:1005F600031CA603BF0A0319C00AD12A042BA501AE
:10060600A6013F08F0004008F100BF0A0319C00A1E
:100616007008A0007108A10018208A110A12A20011
:10062600E52B2908F0002A08F10008002317122CF0
:10063600122CA316A317122C410884000008F00000
:10064600700884000008C20041088400000AF00017
:1006560041088400700880004208003A031D3E2BC2
:100666006E30C5007530C6006C30C7006C30C800EF
:10067600C9014530C200C301C401430842078400D2
:1006860000080319532B4308013EF00000300318FD
:10069600013E4407F1007008C3007108C400402BF6
:1006A600250826040319632B44082602031D5D2B27
:1006B600430825020318632B2508C3002608C40037
:1006C60028084402031D692B270843020318722BCE
:1006D6004308A702031CA8034408A802742BA70119
:1006E600A801A3198B2B2708F0002808F100013078
:1006F600A702031CA8037008710403198B2B3E087C
:10070600840020308000BE0AA90A0319AA0A762BA3
:100716004308F2004408F30001304302F0000030C1
:10072600031C013E4402F1007008C3007108C400B6
:10073600720873040319B02B420884000008F00005
:100746003E08840070088000BE0A420AF000700865
:10075600C200A90A0319AA0A8B2BA31DC72B2708B7
:10076600F0002808F1000130A702031CA803700856
:1007760071040319C72B3E08840020308000BE0A8E
:10078600A90A0319AA0AB22B092A410884000008FB
:10079600F000700884000008A200410884000230BE
:1007A6000007F00041088400700880002230C20073
:1007B6000130C3000030C400532BC030A304003006
:1007C600A404122C2208003A0319142B22086C3AAE
:1007D6000319192B22086F3A0319192B2208643AB8
:1007E60003191B2B2208693A03191B2B2208703A9E
:1007F60003191C2B2208583A03191C2B2208783A95
:1008060003191D2B2208733A03191F2B2208633A7A
:100816000319C82B2208753A0319E02BD92BC030CF
:100826002305F1002408F2000030F20500307206BC
:10083600031D1F2C00307106031D512C4108840036
:100846000008F000700884000008C200840A00084E
:10085600C3004108840002300007F000410884000C
:100866007008800080304306F00080307002031D5F
:100876003E2C003042020318502C0330A3040030F3
:10088600A4044208003CF0004308031C013EF101A9
:10089600F1027008C2007108C300652C410884008B
:1008A6000008F000700884000008C200840A0008EE
:1008B600C3004108840002300007F00041088400AC
:1008C6007008800000302606031D6B2C00302506BC
:1008D600031D782C00304306031D732C003042069E
:1008E600031D782CA50A0319A60AC0302305F000BB
:1008F6007008F400052D0130A2002208053A0319FC
:10090600AA2C2208F000F101F00DF10D7010EB3069
:10091600F00707300318013EF1077008A0007108C0
:10092600A10018208A110A12F200A00A0319A10ACE
:1009360018208A110A12F30073084302031DA52C1E
:10094600720842020318A82CAA2CA20A802C152D84
:100956000130A2002208043A0319D72C2208F0001D
:10096600F101F00DF10D7010F530F00707300318A6
:10097600013EF1077008A0007108A10018208A1135
:100986000A12F200A00A0319A10A18208A110A12F3
:10099600F30073084302031DD22C720842020318A7
:1009A600D52CD72CA20AAD2C152D0130A200220879
:1009B600063A0319042D2208F000F101F00DF10D9D
:1009C6007010DF30F00707300318013EF10770089A
:1009D600A0007108A10018208A110A12F200A00ACC
:1009E6000319A10A18208A110A12F3007308430298
:1009F600031DFF2C720842020318022D042DA20AC1
:100A0600DA2C152D7408003A03197E2C7408C03AA6
:100A160003197E2C7408803A0319AB2C7408403AEB
:100A26000319D82C8030F000803026067002031D92
:100A36001E2D250822020318232D2508A200312D7C
:100A460080302606F00080307002031D2C2D22080F
:100A560025020318312D2208A500A601270828041F
:100A66000319442D03302305F0002408F10000305B
:100A7600F105700871040319442D0130A702031C07
:100A8600A80380302606F000803028067002031D79
:100A96004E2D270825020318572D2508A702031CEB
:100AA600A8032608A802592DA701A801C4302305CA
:100AB600F10024080839F2007208083A031D652D72
:100AC60040307106031D702D2708280403196F2D69
:100AD6000130A702031CA803902DC0302305F100A6
:100AE60024080839F2007208083A031D7C2D80306C
:100AF6007106031D902D8030F000803028067002AC
:100B0600031D872D2708023C03188E2D0230A702ED
:100B1600031CA803902DA701A8013E08CB00FE20C8
:100B26007008BE002508F0002608F1000130A50275
:100B3600031CA6037008710403197F2EC030230519
:100B4600F0007008CA00662E2508F0002608F1009D
:100B5600F00DF10D7010EB30F00707300318013E71
:100B6600F1077008A0007108A10018208A110A1266
:100B7600F400A00A0319A10A18208A110A12F50026
:100B86004208F0004308F100DE210A30F40000308C
:100B9600F500DE217808F0007908F10030307007A2
:100BA600A200762EA31E0B2E2508F0002608F100C3
:100BB600F00DF10D7010F530F00707300318013E07
:100BC600F1077008A0007108A10018208A110A1206
:100BD600F400A00A0319A10A18208A110A12F500C6
:100BE6004208F0004308F100DE210F30F005003026
:100BF600F105BD30F00707300318013EF107700814
:100C0600A0007108A10018208A110A12A2003E2E27
:100C16002508F0002608F100F00DF10D7010F530F2
:100C2600F00707300318013EF1077008A0007108AD
:100C3600A10018208A110A12F400A00A0319A10AB9
:100C460018208A110A12F5004208F0004308F10044
:100C5600DE210F30F0050030F105CE30F007073009
:100C66000318013EF1077008A0007108A1001820C2
:100C76008A110A12A200762E2508F0002608F10035
:100C8600F00DF10D7010DF30F00707300318013E4C
:100C9600F1077008A0007108A10018208A110A1235
:100CA600F400A00A0319A10A18208A110A12F500F5
:100CB6004208F0004308F100DE2107307005A2006B
:100CC6003030A207762E4A08003A0319A72D4A08A3
:100CD600C03A0319A72D4A08803A0319D52D4A08A8
:100CE600403A03193F2E3E08840022088000BE0ABF
:100CF600A90A0319AA0A952DA31D9C2E8030F0007F
:100D0600803028067002031D8A2E2708003C03182F
:100D16009C2E3E08840020308000BE0AA90A0319D2
:100D2600AA0A0130A702031CA80327082804031DEA
:0E0D36008C2E092A2908F0002A08F100080076
:100D440018208A110A128000840AA00A0319A10A31
:080D5400F003031DA22E0800AC
:100D5C00C02E803083120313B600D32EC030B600E1
:100D6C00D32E9430B600D32ED430B600D32E803090
:100D7C00B600D32E831203133608013A0319AF2E93
:100D8C003608023A0319B42E3608033A0319B72E63
:100D9C003608043A0319BA2EBD2E3703F000360874
:100DAC00F0077008B6007008CB002E202B10B9018C
:100DBC0039083807840000080319EC2E3908380765
:100DCC0084000008BE00FB21B90ADE2E2B1408009B
:100DDC00393083120313BD003608BE003708BF003C
:100DEC003808C0003D30C10003227008BB007108F8
:100DFC00BC0070083607840080013B08F0003C08FA
:040E0C00F1000800E9
:100E100083120313B601B7011F149F149F1C112FD7
:100E20000E2F1F101E08F200F301F20DF30D7210C9
:100E3000F20DF30D72100630F10083161E08F0005B
:100E400071080319272FF00CF013FF3E212F0030FB
:100E5000F1007208F0047308F10483123608F004FC
:0E0E60003708F1047008B6007108B7000800EA
:100E6E00FF30831603138500FF30910083121F138A
:100E7E009F129F121F129F111F119F101F101F17DD
:060E8E009F121F12080074
:100E94008316031386120612061086100611861195
:100EA400831286120612861106118610061005207A
:100EB40005200520861406148616152086120520A2
:100EC4008616152086120520861615208612052002
:100ED4000610861615208612052086161520861201
:100EE400861086158616152086120520861106148E
:100EF40086161520861206108616152086120520E1
:100F040086161520861206148616152086120520CC
:100F140006108616152086128615061586140614E4
:0C0F240086161520861205202B140800EC
:100F30004A27372708272C30B6000030B700083082
:100F4000B8007008B9007108BA00EE260130B6008A
:100F50000130B7002C30B800AE260630FB0013304D
:100F6000FC00AD30FD00FD0BB32FFC0BB32FFB0BD2
:0A0F7000B32F000000009A2FBC2FE1
:100F7A00303431343234333434343534363437342B
:100F8A0038343934413442344334443445344634B1
:020F9A00003421
:100F9C003034313432343334343435343634373409
:100FAC0038343934613462346334643465346634CF
:020FBC000034FF
:100FBE000134003408340034403400340034023438
:080FCE000034103400348034BB
:100FD600013400340A34003464340034E834033411
:040FE6001034273468
:100FEA000134003410340034003401340034103435
:0E1000004134443443343D34253464340034E8
:02400E00F21F9F
:00000001FF
