:0A000000EC280000000000000028BA
:0E000A000330FD00FD0B072800000000080079
:020018000800DE
:10001A000230FC00C830FD00FD0B1128FC0B112832
:02002A000800CC
:10002C0083120313A81B1C2888111D288815281B54
:10003C002128081122280815A81A262888102728F4
:10004C008814281A2B2808102C2808142418302857
:10005C0008163128081288160C208812A81938287E
:10006C0088113928881528193D2808113E280815AB
:10007C00A8184228881043288814281847280810E4
:10008C004828081424184C2808164D2808128816DD
:10009C000C208812241C54280D20552805200800FB
:0E00AC008312031323088A0022088200080032
:1000BA0056208A110A128000840AA20A0319A30A86
:0800CA00F003031D5D2808008E
:1000D2007B28803083120313A5008E28C030A50030
:1000E2008E289430A5008E28D430A5008E2880302A
:1000F200A5008E28831203132508013A03196A28E2
:100102002508023A03196F282508033A03197228B1
:100112002508043A0319752878282603F0002508D3
:10012200F0077008A50024147008A80016202410F7
:0A0132002708A80016202414080076
:10013C0083160313881208120810881008118811EE
:10014C0083128812081288110811881008100D20CB
:10015C000D200D208814081488160C2088120D20F0
:10016C0088160C2088120D2088160C2088120D2061
:10017C00081088160C2088120D2088160C20881266
:10018C008810881588160C2088120D2088110814E8
:10019C0088160C208812081088160C2088120D2046
:1001AC0088160C208812081488160C2088120D2032
:1001BC00081088160C208812881508158814081445
:0C01CC0088160C2088120D202414080056
:1001D80083120313A001A1019E200130A80016205C
:1001E800053083168100A0308B00633083128100B4
:1001F8000130A5000130A6002008A70069200329C6
:02400E00F21F9F
:00000001FF
