:0A000000182800000000000000288E
:0E000A008312031321088A00200882000800D8
:1000180005208A110A128000840AA00A0319A10A7D
:08002800F003031D0C28080081
:1000300083160313081488140815071487148811ED
:1000400008120711871107120130F100F201F301C4
:10005000F401F5017108013A031D34288312081CCC
:100060003428F1010130F2007208013A031D3E28E4
:100070008312081D3E28F2010130F3007308013A93
:10008000031D48288312881C4828F3010130F10021
:100090007408013A031D52288312071C5228F401E8
:1000A0000130F5007508013A031D5C288312871C96
:1000B0005C28F5010130F4007108013A031D66283F
:1000C0008312881108120711871107127208013A6A
:1000D000031D712883120313881508120715871151
:1000E00007167308013A031D7C2883120313881135
:1000F00008160711871107127408013A031D872893
:100100008312031388110812071587110712750847
:10011000013A031D922883120313881108128711D4
:08012000071207162A28932894
:02400E00F21F9F
:00000001FF
