:0A0000002A2800000000000000287C
:0E000A008312031321088A00200882000800D8
:10001800831603139C131C139C121C129C111C1195
:100028009C141C1086019D179D169D151D119D146D
:040038001D1008008F
:10003C0005208A110A128000840AA00A0319A10A59
:08004C00F003031D1E2808004B
:100054000C208312860183161C1B3328831206107E
:100064003528831206140230FB000430FC00BA3039
:10007400FD00FD0B3B28FC0B3B28FB0B3B28000041
:040084002D284328B8
:02400E00F21F9F
:00000001FF
