:0A00000001290000000000000028A4
:06000A00000000000800E8
:100010000F30FC004730FD00FD0B0C28FC0B0C28BA
:06002000000000000800D2
:0A0026002130FD00FD0B1528080035
:1000300083120313B41B1E2886111F288615341B38
:100040002328061124280615B41A282886102928E2
:100050008614341A2D2806102E2806142E1832283D
:10006000061633280612861605208612B4193A2879
:1000700086113B28861534193F280611402806159D
:10008000B4184428861045288614341849280610C8
:100090004A2806142E184E2806164F2806128616D1
:1000A000052086122E1C56280820572813200800E9
:1000B000831203132E103308B40018202E140800E6
:0E00C000831203132D088A002C08820008000A
:1000CE0060208A110A128000840AAC0A0319AD0A54
:0800DE00F003031D6728080070
:1000E6008528803083120313AF009828C030AF00F4
:1000F60098289430AF009828D430AF0098288030E4
:10010600AF009828831203132F08013A03197428A5
:100116002F08023A031979282F08033A03197C2875
:100126002F08043A03197F2882283003F0002F088D
:10013600F0077008AF007008B40018202E10B20146
:1001460032083107840000080319B1283208310744
:1001560084000008B3005820B20AA3282E14080011
:1001660083160313861206120610861006118611D0
:1001760083128612061286110611861006100820B2
:1001860008200820861406148616052086120820E4
:100196008616052086120820861605208612082057
:1001A6000610861605208612082086160520861259
:1001B60086108615861605208612082086110614D6
:1001C6008616052086120610861605208612082039
:1001D6008616052086120614861605208612082025
:1001E6000610861605208612861506158614061430
:0C01F60086160520861208202E14080032
:10020200613083120313A0006C30A1006930A20098
:100212006E30A3006130A400A5013230A600323056
:10022200A7006130A8006E30A9006930AA00AB01B6
:10023200B3200130AF000130B0002030B100732094
:100242000230AF000230B0002630B10073202829FE
:02400E00F21F9F
:00000001FF
