:020000000329D2
:0E000600213083120313FD00FD0B07280800B4
:06001400000000000800DE
:10001A000F3083120313FC004730FD00FD0B132839
:0A002A00FC0B132800000000080082
:1000340083120313BC1B20288711212887153C1B1E
:100044002528071126280715BC1A2A2887102B28CB
:1000540087143C1A2F280710302807143418342822
:1000640007163528071287160A208712BC193C2860
:1000740087113D2887153C19412807114228071587
:10008400BC1846288710472887143C184B280710AB
:100094004C280714341850280716512807128716BD
:1000A4000A208712341C58280D20592803200800E0
:0E00B4008312031336088A0035088200080004
:1000C2008312031334103B08BC001A2034140800B6
:1000D2007B28803083120313B7008E28C030B7000C
:1000E2008E289430B7008E28D430B7008E28803006
:1000F200B7008E28831203133708013A03196A28BE
:100102003708023A03196F283708033A031972288D
:100112003708043A0319752878283803F00037089D
:10012200F0077008B7007008BC001A203410BA013A
:100132003A083907840000080319A7283A08390742
:1001420084000008BB006120BA0A99283414080010
:1001520083160313871207120710871007118711DE
:1001620083128712071287110711871007100D20BB
:100172000D200D208714071487160A2087120D20E0
:1001820087160A2087120D2087160A2087120D2053
:10019200071087160A2087120D2087160A20871259
:1001A2008710871587160A2087120D2087110714DA
:1001B20087160A208712071087160A2087120D2039
:1001C20087160A208712071487160A2087120D2025
:1001D200071087160A208712871507158714071438
:0C01E20087160A2087120D203414080034
:1001EE005A208A110A128000840AB50A0319B60A27
:0801FE00F003031DF7280800BF
:10020600733083120313A0007430A1006130A20082
:100216007230A3007430A400A501A6012030A70007
:100226007430A8006530A9007330AA007430AB00A2
:10023600AC012030AD007330AE007430AF006F30CB
:10024600B0007030B100B201B301831606148312F8
:100256000610A9200130BC001A200C30BC001A2060
:100266000130B7000430B8002730B9006920061CF9
:1002760046290130B7000430B8002030B9006920A3
:10028600061C4629432906184F290130B7000430B9
:0C029600B8002D30B90069203A29502929
:02400E00F71F9A
:00000001FF
