:0A0000001828000000000000272867
:0E000A008312031321088A00200882000800D8
:1000180005208A110A128000840AA00A0319A10A7D
:08002800F003031D0C28080081
:10003000013083160313860087018801831286012D
:0E00400088018B170B160C3088002328262809
:10004E00FF00030E8301A3000A08A2008A018B138E
:10005E008B1C4228213088003330FB00BB30FC0063
:10006E00DF30FD00FD0B3928FC0B3928FB0B39283E
:10007E00000000008B1022088A00230E8300FF0E62
:04008E007F0E0900D8
:02400E00F21F9F
:00000001FF
