:0A000000542F000000000000782FCC
:10000A000230FC00C830FD00FD0B0928FC0B092852
:02001A000800DC
:0E001C000330FD00FD0B10280000000008005E
:02002A000800CC
:0E002C008312031337088A003608820008008A
:10003A0083120313D21B2328861124288615521BE8
:10004A002828061129280615D21A2D2886102E28A6
:10005A008614521A32280610332806143A183728FA
:10006A00061638280612861615208612D2193F2837
:10007A008611402886155219442806114528061566
:10008A00D218492886104A28861452184E28061073
:10009A004F2806143A1853280616542806128616AC
:1000AA00152086123A1C5B2805205C280E200800C1
:1000BA0083120313261DB828A61C7328261C682839
:1000CA002D30F0006A282B30F000520884007008A6
:1000DA008000D20AB80A0319B90AA328261C7E2866
:1000EA005208840020308000D20AB80A0319B90ADB
:1000FA00A328C0302605F10027080839F200720843
:10010A00083A031D8A2880307106031DA328520865
:10011A00840030308000D20AB80A0319B90AA61E30
:10012A0099285830F0009B287830F0005208840053
:10013A0070088000D20AB80A0319B90A28082904E3
:10014A000319B7285208840030308000D20AB80A4E
:10015A000319B90A0130A802031CA90328082904B3
:10016A00031DA7282629280829040319CE28A61919
:10017A00CE285208840020308000D20AB80A031917
:10018A00B90A0130A802031CA90328082904031D7F
:10019A00BE28A61CE028261CD5282D30F000D7281A
:1001AA002B30F0005208840070088000D20AB80A86
:1001BA000319B90AEA28261CEA28520884002030C2
:1001CA008000D20AB80A0319B90AC0302605F1001C
:1001DA0027080839F2007208083A031DF628403049
:1001EA007106031D01295208840030308000D20AAA
:1001FA00B80A0319B90A2629C0302605F1002708CA
:10020A000839F2007208083A031D0D298030710678
:10021A00031D26295208840030308000D20AB80A09
:10022A000319B90AA61E1C295830F0001E29783075
:10023A00F0005208840070088000D20AB80A031934
:10024A00B90A8030F00080302B067002031D2F2976
:10025A002A08250203183A295208840030308000FF
:10026A00D20AB80A0319B90A26295208F000080066
:10027A00592983120313A615D20A0319D30A9629F8
:10028A002614D20A0319D30A9629A614D20A0319E4
:10029A00D30A9629A715D20A0319D30A962926152D
:1002AA00D20A0319D30A96295208B6005308B7008E
:1002BA0016208A110A12F10071082D3A03193E29F3
:1002CA005208B6005308B70016208A110A12F10024
:1002DA007108203A031945295208B6005308B70095
:1002EA0016208A110A12F10071082B3A03194A29B9
:1002FA005208B6005308B70016208A110A12F100F4
:10030A007108233A03194F295208B6005308B70057
:10031A0016208A110A12F1007108303A0319542979
:10032A0097293D29A61C9A292610A61D9D29261122
:0A033A005208F0005308F10008001B
:1003440083120313F801F9011030FC00710DF80D4C
:10035400F90D7408F8027508031C750FF9020318E7
:10036400BA297408F80775080318750FF9070310FC
:0A037400F00DF10DFC0BA8290800A4
:10037E0083120313FB01FA01F9018030F800F10C2E
:10038E00F00C031CD3297408F90775080318750FB0
:10039E00FA070318FB0A0310F01FDB297408FA078B
:1003AE0075080318750FFB07FB0CFA0CF90CF80C0B
:1003BE00031CC6297B08F3007A08F2007908F100C5
:0603CE007808F0000800B1
:1003D400831203135208393C031CF72930305202AC
:0E03E400031CF7290130F000F829F001080091
:1003F200831203133A104508D2001D203A14080054
:1004020083120313B801B901A601A7014608F0003F
:100412004708F100C60A0319C70A7008B600710836
:10042200B70016208A110A12F0007008A5007008A1
:1004320003199B2E2508253A0319282A450884000A
:1004420025088000C50AB80A0319B90A072AA801B3
:10045200A901A601A7014608D2004708D3003D2101
:100462007008C6007108C7007008B6007108B700AE
:1004720016208A110A12F0000030F1007008D20032
:10048200EA2170080319772AA801A9012808F000B7
:100492002908F1000A30F4000030F500BF214608B7
:1004A200B6004708B70016208A110A12F200720835
:1004B2007007A80071080318013EA9003030A80295
:1004C200031CA903C60A0319C70A4608B60047084F
:1004D200B70016208A110A12F0000030F1007008ED
:1004E200D200EA217008031D472A9A2A4608B6005C
:1004F2004708B70016208A110A12F10071082A3A39
:10050200031D9A2A480884000008F000700884003D
:100512000008A800840A0008A900480884000230E4
:100522000007F0004808840070088000C60A03191A
:10053200C70A4608B6004708B70016208A110A12F1
:10054200F10071082E3A031D002BC60A0319C70ACF
:100552004608B6004708B70016208A110A12F100B1
:1005620071082A3A031DCD2A480884000008F000C9
:10057200700884000008AA00840A0008AB0048083A
:10058200840002300007F0004808840070088000F0
:10059200C60A0319C70AFF2AAA01AB014608B60018
:1005A2004708B70016208A110A12F0000030F10045
:1005B2007008D200EA2170080319FF2A2A08F00005
:1005C2002B08F1000A30F4000030F500BF21460884
:1005D200B6004708B70016208A110A12F200720804
:1005E2007007AA0071080318013EAB003030AA025E
:1005F200031CAB03C60A0319C70ACF2A022BAA019E
:10060200AB014608F0004708F100C60A0319C70A01
:100612007008B6007108B70016208A110A12A500E8
:10062200E32B3808F0003908F10008002617102CD7
:10063200102CA616A617102C480884000008F000FB
:10064200700884000008C90048088400000AF0000D
:1006520048088400700880004908003A031D3C2BBA
:100662006E30CC007530CD006C30CE006C30CF00D7
:10067200D0014C30C900CA01CB014A0849078400A5
:1006820000080319512B4A08013EF00000300318FC
:10069200013E4B07F1007008CA007108CB003E2BE7
:1006A2002A082B040319612B4B082B02031D5B2B19
:1006B2004A082A020318612B2A08CA002B08CB0019
:1006C20029084B02031D672B28084A020318702BC6
:1006D2004A08A802031CA9034B08A902722BA8010D
:1006E200A901A619892B2808F0002908F100013078
:1006F200A802031CA903700871040319892B450879
:10070200840020308000C50AB80A0319B90A742B84
:100712004A08F2004B08F30001304A02F0000030B0
:10072200031C013E4B02F1007008CA007108CB00A5
:10073200720873040319AE2B490884000008F00004
:100742004508840070088000C50A490AF000700854
:10075200C900B80A0319B90A892BA61DC52B280896
:10076200F0002908F1000130A802031CA903700857
:1007720071040319C52B4508840020308000C50A86
:10078200B80A0319B90AB02B072A480884000008DE
:10079200F000700884000008A500480884000230B8
:1007A2000007F00048088400700880002530C90066
:1007B2000130CA000030CB00512BC030A6040030FB
:1007C200A704102C2508003A0319122B25086C3AAD
:1007D2000319172B25086F3A0319172B2508643ABA
:1007E2000319192B2508693A0319192B2508703AA0
:1007F20003191A2B2508583A03191A2B2508783A97
:1008020003191B2B2508733A03191D2B2508633A7C
:100812000319C62B2508753A0319DE2BD72BC030D6
:100822002605F1002708F2000030F20500307206BA
:10083200031D1D2C00307106031D4F2C4808840037
:100842000008F000700884000008C900840A00084B
:10085200CA004808840002300007F00048088400FB
:100862007008800080304A06F00080307002031D5C
:100872003C2C0030490203184E2C0330A6040030F1
:10088200A7044908003CF0004A08031C013EF1019C
:10089200F1027008C9007108CA00632C480884007C
:1008A2000008F000700884000008C900840A0008EB
:1008B200CA004808840002300007F000480884009B
:1008C2007008800000302B06031D692C00302A06B8
:1008D200031D762C00304A06031D712C0030490698
:1008E200031D762CAA0A0319AB0AC0302605F000B4
:1008F2007008F400032D0130A5002508053A0319FC
:10090200A82C2508F000F101F00DF10D7010CB308C
:10091200F00707300318013EF1077008B6007108AE
:10092200B70016208A110A12F200B60A0319B70A92
:1009320016208A110A12F30073084A02031DA32C1F
:10094200720849020318A62CA82CA50A7E2C132D86
:100952000130A5002508043A0319D52C2508F0001A
:10096200F101F00DF10D7010D530F00707300318CA
:10097200013EF1077008B6007108B70016208A110F
:100982000A12F200B60A0319B70A16208A110A12CD
:10099200F30073084A02031DD02C7208490203189F
:1009A200D32CD52CA50AAB2C132D0130A50025087C
:1009B200063A0319022D2508F000F101F00DF10DA0
:1009C2007010BF30F00707300318013EF1077008BE
:1009D200B6007108B70016208A110A12F200B60A90
:1009E2000319B70A16208A110A12F30073084A0281
:1009F200031DFD2C720849020318002D022DA50AC1
:100A0200D82C132D7408003A03197C2C7408C03AB0
:100A120003197C2C7408803A0319A92C7408403AF3
:100A22000319D62C8030F00080302B067002031D93
:100A32001C2D2A0825020318212D2A08A5002F2D76
:100A420080302B06F00080307002031D2A2D25080D
:100A52002A0203182F2D2508AA00AB012808290411
:100A62000319422D03302605F0002708F10000305B
:100A7200F105700871040319422D0130A802031C0C
:100A8200A90380302B06F000803029067002031D76
:100A92004C2D28082A020318552D2A08A802031CE7
:100AA200A9032B08A902572DA801A901C4302605C4
:100AB200F10027080839F2007208083A031D632D75
:100AC20040307106031D6E2D2808290403196D2D6F
:100AD2000130A802031CA9038E2DC0302605F100A7
:100AE20027080839F2007208083A031D7A2D80306F
:100AF2007106031D8E2D8030F000803029067002B1
:100B0200031D852D2808023C03188C2D0230A802F3
:100B1200031CA9038E2DA801A9014508D2005D205E
:100B22007008C5002A08F0002B08F1000130AA0263
:100B3200031CAB037008710403197D2EC030260517
:100B4200F0007008D100642E2A08F0002B08F10092
:100B5200F00DF10D7010CB30F00707300318013E95
:100B6200F1077008B6007108B70016208A110A1240
:100B7200F400B60A0319B70A16208A110A12F50000
:100B82004908F0004A08F100A2210A30F4000030BE
:100B9200F500A2217808F0007908F10030307007E2
:100BA200A500742EA61E092E2A08F0002B08F100BB
:100BB200F00DF10D7010D530F00707300318013E2B
:100BC200F1077008B6007108B70016208A110A12E0
:100BD200F400B60A0319B70A16208A110A12F500A0
:100BE2004908F0004A08F100A2210F30F005003058
:100BF200F1059D30F00707300318013EF107700838
:100C0200B6007108B70016208A110A12A5003C2E00
:100C12002A08F0002B08F100F00DF10D7010D5300C
:100C2200F00707300318013EF1077008B60071089B
:100C3200B70016208A110A12F400B60A0319B70A7D
:100C420016208A110A12F5004908F0004A08F1003C
:100C5200A2210F30F0050030F105AE30F007073069
:100C62000318013EF1077008B6007108B70016209C
:100C72008A110A12A500742E2A08F0002B08F1002E
:100C8200F00DF10D7010BF30F00707300318013E70
:100C9200F1077008B6007108B70016208A110A120F
:100CA200F400B60A0319B70A16208A110A12F500CF
:100CB2004908F0004A08F100A22107307005A5009A
:100CC2003030A507742E5108003A0319A52D51089A
:100CD200C03A0319A52D5108803A0319D32D5108A2
:100CE200403A03193D2E4508840025088000C50AB4
:100CF200B80A0319B90A932DA61D9A2E8030F00066
:100D0200803029067002031D882E2808003C031833
:100D12009A2E4508840020308000C50AB80A0319BB
:100D2200B90A0130A802031CA90328082904031DDB
:0E0D32008A2E072A3808F0003908F100080060
:100D4000B22E803083120313BD00C52EC030BD000B
:100D5000C52E9430BD00C52ED430BD00C52E8030C8
:100D6000BD00C52E831203133D08013A0319A12EBD
:100D70003D08023A0319A62E3D08033A0319A92E8D
:100D80003D08043A0319AC2EAF2E3E03F0003D0897
:100D9000F0077008BD007008D2001D203A10C00195
:100DA00040083F07840000080319DE2E40083F0773
:100DB00084000008C500F921C00AD02E3A140800AA
:100DC00016208A110A128000840AB60A0319B70A8B
:080DD000F003031DE02E0800F2
:100DD800403083120313C4003D08C5003E08C60016
:100DE8003F08C7004430C80001227008C2007108DB
:100DF800C30070083D07840080014208F0004308E2
:040E0800F1000800ED
:100E0C00831603138612061206108610061186111D
:100E1C008312861206128611061186100610052002
:100E2C00052005208614061486161520861205202A
:100E3C00861615208612052086161520861205208A
:100E4C000610861615208612052086161520861289
:100E5C008610861586161520861205208611061416
:100E6C008616152086120610861615208612052069
:100E7C008616152086120614861615208612052055
:100E8C00061086161520861286150615861406146D
:0C0E9C0086161520861205203A14080066
:100EA80083120313A101A201A301A40183168601E1
:100EB80083128601E0308B001030831681000627EC
:100EC8002C30BD00DD30BE000730BF002308C00055
:100ED8002408C100EC260130BD000130BE002C30D2
:080EE800BF00A026642F772F44
:100EF000FF00030E8301BC000A08BB008A017008D2
:100F0000A0008B130B11A10A0319A20A2208033AAD
:100F1000031D8C2FE8302106031D932FA101A20190
:100F2000A30A0319A40A8B172008F0003B088A00C3
:0A0F30003C0E8300FF0E7F0E090047
:100F3A00303431343234333434343534363437346B
:100F4A0038343934413442344334443445344634F1
:020F5A00003461
:100F5C003034313432343334343435343634373449
:100F6C00383439346134623463346434653466340F
:020F7C0000343F
:100F7E000134003408340034403400340034023478
:080F8E000034103400348034FB
:100F9600013400340A34003464340034E834033451
:040FA60010342734A8
:100FAA000134003410340034003401340034103475
:0E0FBA007334653463343D34253464340034BC
:02400E00F21F9F
:00000001FF
