:0A000000182800000000000000288E
:0E000A008312031321088A00200882000800D8
:1000180005208A110A128000840AA00A0319A10A7D
:08002800F003031D0C28080081
:100030008316031308148814081588110812013058
:10004000F100F201F3017108013A031D2D2883121A
:10005000081C2D28F1010130F2007208013A031D3D
:1000600037288312881C3728F2010130F300730807
:10007000013A031D41288312081D4128F301013074
:10008000F1007108013A031D4828831288110812F3
:100090007208013A031D50288312031388150812B1
:1000A0007308013A031D5828831203138811081698
:0400B0002328592880
:02400E00F21F9F
:00000001FF
