:0A000000A32F0000000000000028FC
:10000A000F30FC004730FD00FD0B0928FC0B0928C6
:06001A00000000000800D8
:0A0020002130FD00FD0B122808003E
:06002A00000000000800C8
:0E0030008312031321088A00200882000800B2
:10003E00831203135008393C031C2C283030500215
:0E004E00031C2C280130F0002D28F0010800C2
:10005C0083120313D01B3428861135288615501BA8
:10006C00392806113A280615D01A3E2886103F2842
:10007C008614501A43280610442806142B184828B6
:10008C00061649280612861615208612D0195028F5
:10009C008611512886155019552806115628061513
:1000AC00D0185A2886105B28861450185F28061022
:1000BC00602806142B186428061665280612861666
:1000CC00152086122B1C6C2805206D28102008008A
:1000DC008A2883120313A315D00A0319D10AC7283F
:1000EC002314D00A0319D10AC728A314D00A031960
:1000FC00D10AC728A415D00A0319D10AC728231579
:10010C00D00A0319D10AC7285008A0005108A10031
:10011C0018208A110A12F10071082D3A03196F2860
:10012C005008A0005108A10018208A110A12F100F1
:10013C007108203A031976285008A0005108A10034
:10014C0018208A110A12F10071082B3A03197B2826
:10015C005008A0005108A10018208A110A12F100C1
:10016C007108233A031980285008A0005108A100F7
:10017C0018208A110A12F1007108303A03198528E7
:10018C00C8286E28A31CCB282310A31DCE2823110E
:0A019C005008F0005108F1000800BF
:1001A60083120313FB01FA01F9018030F800F10C08
:1001B600F00C031CE7287408F90775080318750F77
:1001C600FA070318FB0A0310F01FEF287408FA0752
:1001D60075080318750FFB07FB0CFA0CF90CF80CE5
:1001E600031CDA287B08F3007A08F2007908F1008C
:0601F6007808F00008008B
:1001FC0083120313231D5929A31C1429231C092919
:10020C002D30F0000B292B30F000500884007008C2
:10021C008000D00AA90A0319AA0A4429231C1F2901
:10022C005008840020308000D00AA90A0319AA0AB9
:10023C004429C0302305F10024080839F200720863
:10024C00083A031D2B2980307106031D44295008E0
:10025C00840030308000D00AA90A0319AA0AA31E10
:10026C003A295830F0003C297830F00050088400CE
:10027C0070088000D00AA90A0319AA0A27082804C2
:10028C00031958295008840030308000D00AA90A7C
:10029C000319AA0A0130A702031CA8032708280483
:1002AC00031D4829C7292708280403196F29A319F6
:1002BC006F295008840020308000D00AA90A031945
:1002CC00AA0A0130A702031CA80327082804031D4F
:1002DC005F29A31C8129231C76292D30F000782955
:1002EC002B30F0005008840070088000D00AA90A56
:1002FC000319AA0A8B29231C8B295008840020304F
:10030C008000D00AA90A0319AA0AC0302305F100FB
:10031C0024080839F2007208083A031D9729403066
:10032C007106031DA2295008840030308000D00AC9
:10033C00A90A0319AA0AC729C0302305F100240809
:10034C000839F2007208083A031DAE298030710694
:10035C00031DC7295008840030308000D00AA90A38
:10036C000319AA0AA31EBD295830F000BF29783002
:10037C00F0005008840070088000D00AA90A031904
:10038C00AA0A8030F000803026067002031DD029A6
:10039C00250822020318DB29500884003030800025
:1003AC00D00AA90A0319AA0AC7295008F0000800A4
:1003BC0083120313F801F9011030FC00710DF80DD4
:1003CC00F90D7408F8027508031C750FF90203186F
:1003DC00F6297408F80775080318750FF907031048
:0A03EC00F00DF10DFC0BE4290800F0
:1003F600831203132B104308D0002E202B14080061
:1004060083120313A901AA01A301A4014408F00061
:100416004508F100C40A0319C50A7008A00071084E
:10042600A10018208A110A12F0007008A2007008B4
:1004360003199D2E2208253A03192A2A4308840007
:1004460022088000C30AA90A0319AA0A092AA701D1
:10045600A801A301A4014408D0004508D1006E20DC
:100466007008C4007108C5007008A0007108A100DA
:1004760018208A110A12F0000030F1007008D0002E
:100486001F2070080319792AA701A8012708F00080
:100496002808F1000A30F4000030F500D3204408A3
:1004A600A0004508A10018208A110A12F20072085D
:1004B6007007A70071080318013EA8003030A70294
:1004C600031CA803C40A0319C50A4408A00045086A
:1004D600A10018208A110A12F0000030F1007008FD
:1004E600D0001F207008031D492A9C2A4408A0003A
:1004F6004508A10018208A110A12F10071082A3A4B
:10050600031D9C2A460884000008F0007008840039
:100516000008A700840A0008A800460884000230E4
:100526000007F0004608840070088000C40A03191A
:10053600C50A4408A0004508A10018208A110A121D
:10054600F10071082E3A031D022BC40A0319C50ACD
:100556004408A0004508A10018208A110A12F100DB
:1005660071082A3A031DCF2A460884000008F000C5
:10057600700884000008A500840A0008A600460842
:10058600840002300007F0004608840070088000EE
:10059600C40A0319C50A012BA501A6014408A00037
:1005A6004508A10018208A110A12F0000030F10057
:1005B6007008D0001F2070080319012B2508F000D1
:1005C6002608F1000A30F4000030F500D320440874
:1005D600A0004508A10018208A110A12F20072082C
:1005E6007007A50071080318013EA6003030A50269
:1005F600031CA603C40A0319C50AD12A042BA501A4
:10060600A6014408F0004508F100C40A0319C50A0A
:100616007008A0007108A10018208A110A12A20011
:10062600E52B2908F0002A08F10008002317122CF0
:10063600122CA316A317122C460884000008F000FB
:10064600700884000008C70046088400000AF0000D
:1006560046088400700880004708003A031D3E2BB8
:100666006E30CA007530CB006C30CC006C30CD00DB
:10067600CE014A30C700C801C901480847078400AF
:1006860000080319532B4808013EF00000300318F8
:10069600013E4907F1007008C8007108C900402BE7
:1006A600250826040319632B49082602031D5D2B22
:1006B600480825020318632B2508C8002608C90028
:1006C60028084902031D692B270848020318722BC4
:1006D6004808A702031CA8034908A802742BA7010F
:1006E600A801A3198B2B2708F0002808F100013078
:1006F600A702031CA8037008710403198B2B430877
:10070600840020308000C30AA90A0319AA0A762B9E
:100716004808F2004908F30001304802F0000030B2
:10072600031C013E4902F1007008C8007108C900A7
:10073600720873040319B02B470884000008F00000
:100746004308840070088000C30A470AF000700856
:10075600C700A90A0319AA0A8B2BA31DC72B2708B2
:10076600F0002808F1000130A702031CA803700856
:1007760071040319C72B4308840020308000C30A84
:10078600A90A0319AA0AB22B092A460884000008F6
:10079600F000700884000008A200460884000230B9
:1007A6000007F00046088400700880002230C70069
:1007B6000130C8000030C900532BC030A3040030FC
:1007C600A404122C2208003A0319142B22086C3AAE
:1007D6000319192B22086F3A0319192B2208643AB8
:1007E60003191B2B2208693A03191B2B2208703A9E
:1007F60003191C2B2208583A03191C2B2208783A95
:1008060003191D2B2208733A03191F2B2208633A7A
:100816000319C82B2208753A0319E02BD92BC030CF
:100826002305F1002408F2000030F20500307206BC
:10083600031D1F2C00307106031D512C4608840031
:100846000008F000700884000008C700840A000849
:10085600C8004608840002300007F00046088400FD
:100866007008800080304806F00080307002031D5A
:100876003E2C003047020318502C0330A3040030EE
:10088600A4044708003CF0004808031C013EF1019F
:10089600F1027008C7007108C800652C460884007C
:1008A6000008F000700884000008C700840A0008E9
:1008B600C8004608840002300007F000460884009D
:1008C6007008800000302606031D6B2C00302506BC
:1008D600031D782C00304806031D732C0030470694
:1008E600031D782CA50A0319A60AC0302305F000BB
:1008F6007008F400052D0130A2002208053A0319FC
:10090600AA2C2208F000F101F00DF10D70100C3048
:10091600F00708300318013EF1077008A0007108BF
:10092600A10018208A110A12F200A00A0319A10ACE
:1009360018208A110A12F30073084802031DA52C19
:10094600720847020318A82CAA2CA20A802C152D7F
:100956000130A2002208043A0319D72C2208F0001D
:10096600F101F00DF10D7010F730F00707300318A4
:10097600013EF1077008A0007108A10018208A1135
:100986000A12F200A00A0319A10A18208A110A12F3
:10099600F30073084802031DD22C7208470203189D
:1009A600D52CD72CA20AAD2C152D0130A200220879
:1009B600063A0319042D2208F000F101F00DF10D9D
:1009C60070100030F00708300318013EF107700878
:1009D600A0007108A10018208A110A12F200A00ACC
:1009E6000319A10A18208A110A12F3007308480293
:1009F600031DFF2C720847020318022D042DA20ABC
:100A0600DA2C152D7408003A03197E2C7408C03AA6
:100A160003197E2C7408803A0319AB2C7408403AEB
:100A26000319D82C8030F000803026067002031D92
:100A36001E2D250822020318232D2508A200312D7C
:100A460080302606F00080307002031D2C2D22080F
:100A560025020318312D2208A500A601270828041F
:100A66000319442D03302305F0002408F10000305B
:100A7600F105700871040319442D0130A702031C07
:100A8600A80380302606F000803028067002031D79
:100A96004E2D270825020318572D2508A702031CEB
:100AA600A8032608A802592DA701A801C4302305CA
:100AB600F10024080839F2007208083A031D652D72
:100AC60040307106031D702D2708280403196F2D69
:100AD6000130A702031CA803902DC0302305F100A6
:100AE60024080839F2007208083A031D7C2D80306C
:100AF6007106031D902D8030F000803028067002AC
:100B0600031D872D2708023C03188E2D0230A702ED
:100B1600031CA803902DA701A8014308D000FE20BE
:100B26007008C3002508F0002608F1000130A50270
:100B3600031CA6037008710403197F2EC030230519
:100B4600F0007008CF00662E2508F0002608F10098
:100B5600F00DF10D70100C30F00708300318013E4F
:100B6600F1077008A0007108A10018208A110A1266
:100B7600F400A00A0319A10A18208A110A12F50026
:100B86004708F0004808F100DE210A30F400003082
:100B9600F500DE217808F0007908F10030307007A2
:100BA600A200762EA31E0B2E2508F0002608F100C3
:100BB600F00DF10D7010F730F00707300318013E05
:100BC600F1077008A0007108A10018208A110A1206
:100BD600F400A00A0319A10A18208A110A12F500C6
:100BE6004708F0004808F100DE210F30F00500301C
:100BF600F105D830F00707300318013EF1077008F9
:100C0600A0007108A10018208A110A12A2003E2E27
:100C16002508F0002608F100F00DF10D7010F730F0
:100C2600F00707300318013EF1077008A0007108AD
:100C3600A10018208A110A12F400A00A0319A10AB9
:100C460018208A110A12F5004708F0004808F1003A
:100C5600DE210F30F0050030F105C730F007073010
:100C66000318013EF1077008A0007108A1001820C2
:100C76008A110A12A200762E2508F0002608F10035
:100C8600F00DF10D70100030F00708300318013E2A
:100C9600F1077008A0007108A10018208A110A1235
:100CA600F400A00A0319A10A18208A110A12F500F5
:100CB6004708F0004808F100DE2107307005A20061
:100CC6003030A207762E4F08003A0319A72D4F0899
:100CD600C03A0319A72D4F08803A0319D52D4F089E
:100CE600403A03193F2E4308840022088000C30AB5
:100CF600A90A0319AA0A952DA31D9C2E8030F0007F
:100D0600803028067002031D8A2E2708003C03182F
:100D16009C2E4308840020308000C30AA90A0319C8
:100D2600AA0A0130A702031CA80327082804031DEA
:0E0D36008C2E092A2908F0002A08F100080076
:100D440018208A110A128000840AA00A0319A10A31
:080D5400F003031DA22E0800AC
:100D5C00C02E803083120313BB00D32EC030BB00D7
:100D6C00D32E9430BB00D32ED430BB00D32E803086
:100D7C00BB00D32E831203133B08013A0319AF2E89
:100D8C003B08023A0319B42E3B08033A0319B72E59
:100D9C003B08043A0319BA2EBD2E3C03F0003B0865
:100DAC00F0077008BB007008D0002E202B10BE017D
:100DBC003E083D07840000080319EC2E3E083D0751
:100DCC0084000008C300FB21BE0ADE2E2B14080091
:100DDC003E3083120313C2003B08C3003C08C4001E
:100DEC003D08C5004230C60003227008C0007108DF
:100DFC00C10070083B07840080014008F0004108E6
:040E0C00F1000800E9
:100E100083120313BB01BC011F140330FC00973085
:100E2000FD00FD0B112FFC0B112F000000009F1483
:100E30009F1C1B2F182F1F101E08F200F301F20D2C
:100E4000F30D7210F20DF30D72100630F1008316DF
:100E50001E08F00071080319312FF00CF013FF3E4B
:100E60002B2F0030F1007208F0047308F104831294
:100E70003B08F0043C08F1047008BB007108BC009A
:020E8000080068
:100E8200FF30831603138500FF30910083129F13F6
:100E92001F139F121F129F111F119F101F108316E5
:080EA2001F139F121F16080028
:100EAA00831603138612061206108610061186117F
:100EBA008312861206128611061186100610052064
:100ECA00052005208614061486161520861205208C
:100EDA0086161520861205208616152086120520EC
:100EEA0006108616152086120520861615208612EB
:100EFA008610861586161520861205208611061478
:100F0A0086161520861206108616152086120520CA
:100F1A0086161520861206148616152086120520B6
:100F2A0006108616152086128615061586140614CE
:0C0F3A0086161520861205202B140800D6
:100F46005527412708272C30BB00E930BC00073065
:100F5600BD007008BE007108BF00EE260130BB0060
:100F66000130BC002C30BD00AE260230FB00043040
:100F7600FC00BA30FD00FD0BBE2FFC0BBE2FFB0B99
:080F8600BE2F0000A52FC62FAD
:100F8E003034313432343334343435343634373417
:100F9E0038343934613462346334643465346634DD
:020FAE0000340D
:100FB00030343134323433343434353436343734F5
:100FC000383439344134423443344434453446347B
:020FD0000034EB
:100FD200763461346C34203463346F346E34763456
:0C0FE2003D3425346434203420340034C5
:100FEE000134003410340034003401340034103431
:1010000001340034083400344034003400340234F5
:08101000003410340034803478
:10101800013400340A34003464340034E8340334CE
:041028001034273425
:02400E00F21F9F
:00000001FF
