:0A0000003F2B000000000000322C2E
:08000A00FA1FF2130030080098
:10001200FB14FB1F1328FF30F300F200F100F00085
:08002200FA0DF20CFF3008009A
:10002A007B15FB1F1F280130F300F201F101F001DB
:08003A00FA0DF20CFF30080082
:0E004200F201F101F001F801F30100300800B5
:10005000A0017208031D3D287108F2007008F1002C
:10006000F001A0157208031D3D287108F200F1018E
:10007000A0112016720803194B282008F302031D53
:10008000031C4F280310F21B5328F00DF10DF20D45
:10009000F30B43284F280130FC0021205628023062
:0E00A000FC00152056280430FC000520080046
:1000AE007C188D28FC185E287C19AC285728A001D6
:1000BE007208031D7E287108F2007008F10078089E
:1000CE00F000F801A0157208031D7E287108F200D9
:1000DE007008F100F001A01120167208031D7E2891
:1000EE007108F200F101A01572080319A02820086A
:1000FE00F302031D031CA4280310F21B8D28F80D18
:10010E00F00DF10DF20DF30B8428A4287B1B701C4F
:10011E00A828F81FA828F00A0319F10A0319F20AF1
:10012E00031DA828F20CF10CF00CF30A0319AC28ED
:10013E00A8280130FC002120AF280230FC00152039
:10014E00AF280430FC000520AF280830FC00092041
:04015E000000080095
:06016200FB15FF30080050
:0E0168008312031327088A002608820008006D
:100176008312031372087606A000F801F9017308CA
:100186007702031CDE287708FD007308F7007D0858
:10019600F3007608FD007208F6007D08F200750887
:1001A600FD007108F5007D08F1007408FD00700877
:1001B600F4007D08F0007708031957297208FA0041
:1001C600F217F61777087302F7000319112908309A
:1001D6007702031C0729F7007408F9007508F40074
:1001E6007608F500F60108307702031C0729F700A8
:1001F6007408F9007508F400F50108307702031C4D
:1002060007297A08F20057297708031911290310DC
:10021600F60CF50CF40CF90CF70B0A29A01F1E2995
:10022600F909F409F509F609F90A0319F40A031993
:10023600F50A0319F60A7908F80774080318740F03
:10024600F00775080318750FF10776080318760F7F
:10025600F207A01B3729031C4729F20CF10CF00CFE
:10026600F80CF30F4729532903184B29F809F0090D
:10027600F109F209F80A0319F00A0319F10A031938
:10028600F20A8030FA064F290130FC00572059291E
:100296000230FC00572059290430FC002820592937
:1002A6000830FC00092059290030FC000000080035
:1002B6007B14FB1F6629F201FA1FFF30F200F100E2
:0A02C600F000FA0DF20CFF30080002
:1002D00083120313FB0173080319A5297208FA009E
:1002E000F2178E30F302F31FA829F309F30A08303E
:1002F0007302031C8B29F300F10D7208F100F20167
:1003000008307302031C8B29F300F10DF10173080F
:10031000031D031093297308031993290310F20C8A
:10032000F10CF30B8E297B1B711C9D29031C9D294D
:10033000F10A0319F20AF21BB429FA1FB729F209CC
:10034000F109F10A0319F20AB729F201F101B729FB
:100350007B14FB1FBA29F201FA1FBA29FF30F20001
:10036000F100FA0DF20CBA290130FC00BC29003072
:10037000FC00BC29FF30FC00FC080319C0295B21EC
:0A0380007108F0007208F100080097
:0C038A00831203138030F606BB2008002D
:100396007408003A031DE4297508003A031DE42990
:1003A6007608003A031DE4297708003A031DE4297C
:1003B600FF30F000FF30F1007F30F200FF30F30035
:1003C60008008312031377080319732A73080319A5
:1003D600762A720876068039FA00F217F617A00117
:1003E6007208F8007108FC007008FD007408FD0230
:1003F6007508031C750FFC027608031C760FF802BD
:10040600F801FC01FD01031C0F2A0310F20CF10C8C
:10041600F00CF80C0130A0007708F302031C192A2F
:100426007E302007F3070318792A1E2A7E3020071C
:10043600F307031C7C2A1830FA07FD0DFC0DF80D96
:10044600F00DF10DF20DA00D7408F0027508031CF5
:10045600750FF1027608031C760FF202760DA004E2
:10046600201C372A7D14422A7408F00775080318E1
:10047600750FF10776080318760AF2077D10FA035E
:100486001F307A05031D202A7B1B7D1C692A031059
:10049600F00DF10DF20DA00D7408F0027508031CA5
:1004A600750FF1027608031C760FF202760D200412
:1004B6000139FD070318FC0A0319F80A031D692A06
:1004C600F80CFC0CFD0CF30A0319792AFA1FF81331
:1004D6007808F2007C08F1007D08F00000307E2AE2
:1004E6000130B1207E2A023021207E2A04300920E4
:0A04F6007E2A0830152000000800DF
:1005000083120313FA017308031D7A147708031D7D
:10051000FA147A080319CC2A033A0319972A7A188D
:10052000942AF61FCA2AC82AF21FC82ACA2A7208A1
:100530008039FA00F21376088039F6137A06031927
:10054000A52A7A080319C82ACA2A77087302031948
:10055000AC2A031CC02AC42A760872020319B32AE3
:10056000031CC02AC42A750871020319BA2A031C85
:10057000C02AC42A740870020319CC2A0318C42A9A
:10058000FA080319CA2AC82AFA080319C82ACA2A63
:1005900003140800031008000314031508000800E2
:1005A000B4208A110A128000840AA60A8312031357
:0C05B0000319A70AF003031DD02A08005D
:1005BC0083120313FB017308031D77080319352BF2
:1005CC0072087606FA007708F3077E30031CF22ACD
:1005DC00F3020318382BF52AF302031C3B2B720889
:1005EC00F8007108FC007008FD00F817F6170310EE
:1005FC00F201F101F0011830A0007D1C0F2B7408E2
:10060C00F00775080318750FF10776080318760FB5
:10061C00F207F20CF10CF00CF80CFC0CFD0C0310B6
:10062C00A00B032BF21B1F2BF80DF00DF10DF20D8F
:10063C00F3037B1B701C312BF81F312BF00A0319B1
:10064C00F10A0319F20A031D312BF20CF10CF00C18
:10065C00F30A0319382BFA1FF21300303D2B01302B
:10066C0021203D2B023009203D2B043015200000A9
:02067C00080074
:10067E0083120313A101A2014030A3007F30A40016
:10068E00023083169C00A7309D008D160B178B171A
:10069E0008148814081183120811081C572B2514EE
:1006AE00251CC02B0808003A031DC02B2108F000A2
:1006BE002208F1002308F2002408F300CD30F400E4
:1006CE00CC30F5004C30F6007C30F700BB207008C3
:1006DE00F4007108F5007208F6007308F700003098
:1006EE00F0000030F1006030F2007F30F300802225
:1006FE000130031C0030F000700803199F2B2108F5
:10070E00F0002208F1002308F2002408F300CD3097
:10071E00F400CC30F5004C30F6007C30F700BB20F6
:10072E007008A1007108A2007208A3007308A4004B
:10073E002108F0002208F1002308F2002408F3003B
:10074E000030F4000030F5004030F6008330F70042
:10075E00DE220030F4000030F5002030F60081304B
:10076E00F700CB2168217008963E83169D008312F8
:10077E002510881CC32BA514A51C282C0808003A8C
:10078E00031D282CCD30F400CC30F5004C30F60093
:10079E007C30F7002108F0002208F1002308F20057
:1007AE002408F300C5217008F4007108F5007208E2
:1007BE00F6007308F700F001F101F201F301802257
:1007CE00013003180030F00070080319072CCD30EB
:1007DE00F400CC30F5004C30F6007C30F7002108E8
:1007EE00F0002208F1002308F2002408F300C521CE
:1007FE007008A1007108A2007208A3007308A4007B
:10080E002108F0002208F1002308F2002408F3006A
:10081E000030F4000030F5004030F6008330F70071
:10082E00DE220030F4000030F5002030F60081307A
:10083E00F700CB2168217008963E83169D00831227
:10084E00A51083161C1F2E2C83120811302C831218
:06085E000815282C312CC6
:10086400FF00030E8301A8000A08A9008A018B1364
:1008740083168D1E422C04308312880683168D1233
:100884008B17831229088A00280E8300FF0E7F0E1F
:02089400090059
:02400E00F21F9F
:00000001FF
