:0A000000742F00000000000000282B
:10000A000230FC00C830FD00FD0B0928FC0B092852
:02001A000800DC
:0E001C000330FD00FD0B10280000000008005E
:02002A000800CC
:0E002C008312031321088A00200882000800B6
:10003A00831203135008393C031C2A28303050021B
:0E004A00031C2A280130F0002B28F0010800CA
:1000580083120313D01B3228861133288615501BB0
:100068003728061138280615D01A3C2886103D284E
:100078008614501A412806104228061422184628C9
:10008800061647280612861615208612D0194E28FD
:1000980086114F288615501953280611542806151D
:1000A800D018582886105928861450185D2806102C
:1000B8005E28061422186228061663280612861679
:1000C80015208612221C6A2805206B280E2008009D
:1000D800882883120313A615D00A0319D10AC52844
:1000E8002614D00A0319D10AC528A614D00A031960
:1000F800D10AC528A715D00A0319D10AC52826157B
:10010800D00A0319D10AC5285008A0005108A10037
:1001180016208A110A12F10071082D3A03196D2868
:100128005008A0005108A10016208A110A12F100F7
:100138007108203A031974285008A0005108A1003A
:1001480016208A110A12F10071082B3A031979282E
:100158005008A0005108A10016208A110A12F100C7
:100168007108233A03197E285008A0005108A100FD
:1001780016208A110A12F1007108303A03198328EF
:10018800C6286C28A61CC9282610A61DCC2826110E
:0A0198005008F0005108F1000800C3
:1001A20083120313FB01FA01F9018030F800F10C0C
:1001B200F00C031CE5287408F90775080318750F7D
:1001C200FA070318FB0A0310F01FED287408FA0758
:1001D20075080318750FFB07FB0CFA0CF90CF80CE9
:1001E200031CD8287B08F3007A08F2007908F10092
:0601F2007808F00008008F
:1001F80083120313261D5729A61C1229261C07291A
:100208002D30F00009292B30F000500884007008C8
:100218008000D00AA30A0319A40A4229261C1D2912
:100228005008840020308000D00AA30A0319A40AC9
:100238004229C0302605F10027080839F200720863
:10024800083A031D292980307106031D42295008E8
:10025800840030308000D00AA30A0319A40AA61E1D
:1002680038295830F0003A297830F00050088400D6
:1002780070088000D00AA30A0319A40A2A082B04CC
:10028800031956295008840030308000D00AA30A88
:100298000319A40A0130AA02031CAB032A082B0481
:1002A800031D4629C5292A082B0403196D29A619F7
:1002B8006D295008840020308000D00AA30A031951
:1002C800A40A0130AA02031CAB032A082B04031D4D
:1002D8005D29A61C7F29261C74292D30F00076295B
:1002E8002B30F0005008840070088000D00AA30A60
:1002F8000319A40A8929261C89295008840020305A
:100308008000D00AA30A0319A40AC0302605F10008
:1003180027080839F2007208083A031D9529403069
:100328007106031DA0295008840030308000D00ACF
:10033800A30A0319A40AC529C0302605F100270815
:100348000839F2007208083A031DAC29803071069A
:10035800031DC5295008840030308000D00AA30A44
:100368000319A40AA61EBB295830F000BD2978300D
:10037800F0005008840070088000D00AA30A03190E
:10038800A40A8030F000803029067002031DCE29AF
:10039800280825020318D929500884003030800025
:1003A800D00AA30A0319A40AC5295008F0000800B6
:1003B80083120313F801F9011030FC00710DF80DD8
:1003C800F90D7408F8027508031C750FF902031873
:1003D800F4297408F80775080318750FF90703104E
:0A03E800F00DF10DFC0BE2290800F6
:1003F2008312031322104308D0002C202214080079
:1004020083120313A301A401A601A7014408F0006B
:100412004508F100C40A0319C50A7008A000710852
:10042200A10016208A110A12F0007008A5007008B7
:1004320003199B2E2508253A0319282A430884000C
:1004420025088000C30AA30A0319A40A072AAA01DD
:10045200AB01A601A7014408D0004508D1006C20D9
:100462007008C4007108C5007008A0007108A100DE
:1004720016208A110A12F0000030F1007008D00034
:100482001D2070080319772AAA01AB012A08F0007F
:100492002B08F1000A30F4000030F500D1204408A6
:1004A200A0004508A10016208A110A12F200720863
:1004B2007007AA0071080318013EAB003030AA028F
:1004C200031CAB03C40A0319C50A4408A00045086B
:1004D200A10016208A110A12F0000030F100700803
:1004E200D0001D207008031D472A9A2A4408A00044
:1004F2004508A10016208A110A12F10071082A3A51
:10050200031D9A2A460884000008F000700884003F
:100512000008AA00840A0008AB00460884000230E2
:100522000007F0004608840070088000C40A03191E
:10053200C50A4408A0004508A10016208A110A1223
:10054200F10071082E3A031D002BC40A0319C50AD3
:100552004408A0004508A10016208A110A12F100E1
:1005620071082A3A031DCD2A460884000008F000CB
:10057200700884000008A800840A0008A900460840
:10058200840002300007F0004608840070088000F2
:10059200C40A0319C50AFF2AA801A9014408A00038
:1005A2004508A10016208A110A12F0000030F1005D
:1005B2007008D0001D2070080319FF2A2808F000D7
:1005C2002908F1000A30F4000030F500D120440877
:1005D200A0004508A10016208A110A12F200720832
:1005E2007007A80071080318013EA9003030A80264
:1005F200031CA903C40A0319C50ACF2A022BA801A6
:10060200A9014408F0004508F100C40A0319C50A0B
:100612007008A0007108A10016208A110A12A50014
:10062200E32B2308F0002408F10008002617102C01
:10063200102CA616A617102C460884000008F000FD
:10064200700884000008C70046088400000AF00011
:1006520046088400700880004708003A031D3C2BBE
:100662006E30CA007530CB006C30CC006C30CD00DF
:10067200CE014A30C700C801C901480847078400B3
:1006820000080319512B4808013EF00000300318FE
:10069200013E4907F1007008C8007108C9003E2BED
:1006A200280829040319612B49082902031D5B2B21
:1006B200480828020318612B2808C8002908C90025
:1006C2002B084902031D672B2A0848020318702BC6
:1006D2004808AA02031CAB034908AB02722BAA0109
:1006E200AB01A619892B2A08F0002B08F100013072
:1006F200AA02031CAB03700871040319892B430877
:10070200840020308000C30AA30A0319A40A742BB0
:100712004808F2004908F30001304802F0000030B6
:10072200031C013E4902F1007008C8007108C900AB
:10073200720873040319AE2B470884000008F00006
:100742004308840070088000C30A470AF00070085A
:10075200C700A30A0319A40A892BA61DC52B2A08C0
:10076200F0002B08F1000130AA02031CAB03700851
:1007720071040319C52B4308840020308000C30A8A
:10078200A30A0319A40AB02B072A4608840000080A
:10079200F000700884000008A500460884000230BA
:1007A2000007F00046088400700880002530C7006A
:1007B2000130C8000030C900512BC030A6040030FF
:1007C200A704102C2508003A0319122B25086C3AAD
:1007D2000319172B25086F3A0319172B2508643ABA
:1007E2000319192B2508693A0319192B2508703AA0
:1007F20003191A2B2508583A03191A2B2508783A97
:1008020003191B2B2508733A03191D2B2508633A7C
:100812000319C62B2508753A0319DE2BD72BC030D6
:100822002605F1002708F2000030F20500307206BA
:10083200031D1D2C00307106031D4F2C4608840039
:100842000008F000700884000008C700840A00084D
:10085200C8004608840002300007F0004608840001
:100862007008800080304806F00080307002031D5E
:100872003C2C0030470203184E2C0330A6040030F3
:10088200A7044708003CF0004808031C013EF101A0
:10089200F1027008C7007108C800632C4608840082
:1008A2000008F000700884000008C700840A0008ED
:1008B200C8004608840002300007F00046088400A1
:1008C2007008800000302906031D692C00302806BC
:1008D200031D762C00304806031D712C003047069C
:1008E200031D762CA80A0319A90AC0302605F000B8
:1008F2007008F400032D0130A5002508053A0319FC
:10090200A82C2508F000F101F00DF10D7010C23095
:10091200F00707300318013EF1077008A0007108C4
:10092200A10016208A110A12F200A00A0319A10AD4
:1009320016208A110A12F30073084802031DA32C21
:10094200720847020318A62CA82CA50A7E2C132D88
:100952000130A5002508043A0319D52C2508F0001A
:10096200F101F00DF10D7010D530F00707300318CA
:10097200013EF1077008A0007108A10016208A113B
:100982000A12F200A00A0319A10A16208A110A12F9
:10099200F30073084802031DD02C720847020318A3
:1009A200D32CD52CA50AAB2C132D0130A50025087C
:1009B200063A0319022D2508F000F101F00DF10DA0
:1009C2007010B630F00707300318013EF1077008C7
:1009D200A0007108A10016208A110A12F200A00AD2
:1009E2000319A10A16208A110A12F3007308480299
:1009F200031DFD2C720847020318002D022DA50AC3
:100A0200D82C132D7408003A03197C2C7408C03AB0
:100A120003197C2C7408803A0319A92C7408403AF3
:100A22000319D62C8030F000803029067002031D95
:100A32001C2D280825020318212D2808A5002F2D7A
:100A420080302906F00080307002031D2A2D25080F
:100A5200280203182F2D2508A800A9012A082B0413
:100A62000319422D03302605F0002708F10000305B
:100A7200F105700871040319422D0130AA02031C0A
:100A8200AB0380302906F00080302B067002031D74
:100A92004C2D2A0828020318552D2808AA02031CE7
:100AA200AB032908AB02572DAA01AB01C4302605BE
:100AB200F10027080839F2007208083A031D632D75
:100AC20040307106031D6E2D2A082B0403196D2D6B
:100AD2000130AA02031CAB038E2DC0302605F100A3
:100AE20027080839F2007208083A031D7A2D80306F
:100AF2007106031D8E2D8030F00080302B067002AF
:100B0200031D852D2A08023C03188C2D0230AA02EF
:100B1200031CAB038E2DAA01AB014308D000FC20BD
:100B22007008C3002808F0002908F1000130A8026B
:100B3200031CA9037008710403197D2EC030260519
:100B4200F0007008CF00642E2808F0002908F10098
:100B5200F00DF10D7010C230F00707300318013E9E
:100B6200F1077008A0007108A10016208A110A126C
:100B7200F400A00A0319A10A16208A110A12F5002C
:100B82004708F0004808F100DC210A30F400003088
:100B9200F500DC217808F0007908F10030307007A8
:100BA200A500742EA61E092E2808F0002908F100BF
:100BB200F00DF10D7010D530F00707300318013E2B
:100BC200F1077008A0007108A10016208A110A120C
:100BD200F400A00A0319A10A16208A110A12F500CC
:100BE2004708F0004808F100DC210F30F005003022
:100BF200F105A530F00707300318013EF107700830
:100C0200A0007108A10016208A110A12A5003C2E2C
:100C12002808F0002908F100F00DF10D7010D53010
:100C2200F00707300318013EF1077008A0007108B1
:100C3200A10016208A110A12F400A00A0319A10ABF
:100C420016208A110A12F5004708F0004808F10040
:100C5200DC210F30F0050030F1059430F007073049
:100C62000318013EF1077008A0007108A1001620C8
:100C72008A110A12A500742E2808F0002908F10032
:100C8200F00DF10D7010B630F00707300318013E79
:100C9200F1077008A0007108A10016208A110A123B
:100CA200F400A00A0319A10A16208A110A12F500FB
:100CB2004708F0004808F100DC2107307005A50064
:100CC2003030A507742E4F08003A0319A52D4F089E
:100CD200C03A0319A52D4F08803A0319D32D4F08A6
:100CE200403A03193D2E4308840025088000C30AB8
:100CF200A30A0319A40A932DA61D9A2E8030F00090
:100D020080302B067002031D882E2A08003C03182F
:100D12009A2E4308840020308000C30AA30A0319D4
:100D2200A40A0130AA02031CAB032A082B04031DE8
:0E0D32008A2E072A2308F0002408F10008008A
:100D400016208A110A128000840AA00A0319A10A37
:080D5000F003031DA02E0800B2
:100D5800BE2E803083120313BB00D12EC030BB00DF
:100D6800D12E9430BB00D12ED430BB00D12E803090
:100D7800BB00D12E831203133B08013A0319AD2E91
:100D88003B08023A0319B22E3B08033A0319B52E61
:100D98003B08043A0319B82EBB2E3C03F0003B086D
:100DA800F0077008BB007008D0002C202210BE018C
:100DB8003E083D07840000080319EA2E3E083D0757
:100DC80084000008C300F921BE0ADC2E22140800A2
:100DD8003E3083120313C2003B08C3003C08C40022
:100DE8003D08C5004230C60001227008C0007108E5
:100DF800C10070083B07840080014008F0004108EA
:040E0800F1000800ED
:100E0C00831203131F149F149F1C0E2F1F100A2FE5
:080E1C001E08F000F1010800BE
:100E2400FF3083160313910083129F131F139F1225
:100E34001F129F111F119F101F1083161F139F1243
:080E44001F16FF3085000800B5
:100E4C0083160313861206120610861006118611DD
:100E5C0083128612061286110611861006100520C2
:100E6C0005200520861406148616152086120520EA
:100E7C00861615208612052086161520861205204A
:100E8C000610861615208612052086161520861249
:100E9C0086108615861615208612052086110614D6
:100EAC008616152086120610861615208612052029
:100EBC008616152086120614861615208612052015
:100ECC00061086161520861286150615861406142D
:0C0EDC008616152086120520221408003E
:100EE8002627122706272C30BB00CC30BC00073041
:100EF800BD007008BE007108BF00EC260130BB00C1
:100F08000130BC002C30BD00AC262130FC0076300E
:100F1800FD00FD0B8D2FFC0B8D2F0000762F932FDE
:100F2800303431343234333434343534363437347D
:100F38003834393461346234633464346534663443
:020F4800003473
:100F4A00303431343234333434343534363437345B
:100F5A0038343934413442344334443445344634E1
:020F6A00003451
:100F6C00013400340834003440340034003402348A
:080F7C0000341034003480340D
:100F8400013400340A34003464340034E834033463
:040F940010342734BA
:100F980063346F346E3476343D342534643420340D
:020FA800003413
:100FAA000134003410340034003401340034103475
:02400E00F21F9F
:00000001FF
