:0A0000004228000000000000002864
:0E000A008312031321088A00200882000800D8
:10001800831603139C131C139C121C129C111C1591
:100028009C101C1097010F308500831285018316E0
:08003800860183128601080015
:1000400083120313A301220803192D2800308316FD
:100050009C1B01308312A3003328003083161C1B25
:0C00600001308312A3002308F000080008
:10006C0005208A110A128000840AA00A0319A10A29
:08007C00F003031D3628080003
:100084000C20A20120207018492886104A288614C2
:100094000B30FB002630FC005D30FD00FD0B5028CA
:1000A400FC0B5028FB0B5028000000004328592863
:02400E00F21F9F
:00000001FF
