:0A000000182800000000000000288E
:0E000A008312031321088A00200882000800D8
:1000180005208A110A128000840AA00A0319A10A7D
:08002800F003031D0C28080081
:100030008316031386018701880185010130890039
:1000400086173F308312A2000030A3000630A400C0
:100050000030A5005B30A6000030A7004F30A8009C
:100060000030A9006630AA000030AB006D30AC0053
:100070000030AD007D30AE000030AF000730B00082
:100080000030B1007F30B2000030B3006F30B400F8
:100090000030B5000430880001308700861F9628A4
:1000A0000430880001308700023087000B30FB00ED
:1000B0002630FC005D30FD00FD0B5C28FC0B5C284D
:1000C000FB0B5C2800000000013087000430880032
:1000D0000930F3000030F40080307406F000803006
:1000E0007002031D752800307302031C96287308E4
:1000F000F0007408F100F00DF10D70107008223E50
:100100008400000886000B30FB002630FC005D30C8
:10011000FD00FD0B8928FC0B8928FB0B89280000BA
:1001200000000130F302031CF4036C280630850044
:1001300089010930F3000030F40080307406F000CB
:1001400080307002031DA62800307302031CC728EC
:100150007308F0007408F100F00DF10D70107008D4
:10016000223E8400000886000B30FB002630FC0095
:100170005D30FD00FD0BBA28FC0BBA28FB0BBA283A
:10018000000000000130F302031CF4039D281F301F
:100190008500803087000930F3000030F4008030A3
:1001A0007406F00080307002031DD82800307302FE
:1001B000031CF9287308F0007408F100F00DF10D2C
:1001C00070107008223E8400000886000B30FB008F
:1001D0002630FC005D30FD00FD0BEC28FC0BEC280C
:1001E000FB0BEC28000000000130F302031CF403B9
:1001F000CF28023088000B30FB002630FC005D3039
:10020000FD00FD0B0129FC0B0129FB0B012900005E
:10021000000001308800043087000930F30000300E
:10022000F40080307406F00080307002031D1A293B
:1002300000307302031C3B297308F0007408F100BE
:10024000F00DF10D70107008223E84000008860049
:100250000B30FB002630FC005D30FD00FD0B2E292D
:10026000FC0B2E29FB0B2E29000000000130F302AD
:10027000031CF4031129023087000B30FB002630E9
:10028000FC005D30FD00FD0B4329FC0B4329FB0BFB
:0A0290004329000000004A284C2911
:02400E00F21F9F
:00000001FF
