:020000040000FA
:04000000000076285E
:040004000034003490
:08000800A00003088301A10020
:100010000A08A2000408A30083160B08203903195C
:1000200015280B080439031D52280B080839031939
:100030001D280B080139031D58280B081039031916
:1000400025280B080239031D68280B0840390319BD
:100050006C280C0880390319332883120C08831686
:100060008039031D69280C08403903193D28831283
:100070000C0883164039031D6A280C080839031937
:10008000472883120C0883160839031D6B280C08B7
:10009000013903196C2883120C0883160139031DDA
:1000A0006C286C288312072183160B1183126C288D
:1000B000F920013C031D63288316A40AA419A40196
:1000C00024089420A8008312050883160B106C28BE
:1000D0006C286C286C286C28830123088400220873
:1000E0008A0021088300A00E200E0900FF2383163A
:1000F0009000A120831285018316FF3085009901AD
:100100009F01831207309900831680308100961575
:100110008B158B160B110B108B1783128101A40109
:1001200024089420A80093289930240703188A0AE9
:1001300082005F3406343B342F3466346D347D34B2
:02014000073482
:0E014200A701A9010800A930270703188A0A9F
:100150008200B128B328B528B728B928BB28BD2804
:10016000BF28C120C028C820C028CF20C028D62042
:10017000C028DD20C028E420C028EB20C028F220C1
:1001800008008316CF3085008312103085000800E8
:100190008316CF3085008312203085000800831637
:1001A000EB30850083121030850008008316EB3099
:1001B000850083120430850008008316DB3085003B
:1001C00083122030850008008316DB3085008312FF
:1001D0000430850008008316F9308500831204304E
:1001E000850008008316F9308500831202308500EF
:1001F000080083120D3000218519FF2801340034D6
:10020000A600A501A50B0229A60B022908002708B4
:1002100003190C29A71D0F292808A900A7010310FD
:0E022000A90C031814291529A420A70A080008
:02400E00843FED
:00000001FF
