:0A000000182800000000000000288E
:0E000A008312031321088A00200882000800D8
:1000180005208A110A128000840AA00A0319A10A7D
:08002800F003031D0C28080081
:1000300083160313871230308F000630831292002C
:100040009B30831692000730831295001C30970076
:10005000150AF0007008950015080E3C03183228A8
:10006000073095000430FB000C30FC003330FD00FD
:10007000FD0B3828FC0B3828FB0B3828000000004B
:0400800028284128C3
:02400E00F21F9F
:00000001FF
