:0A000000182800000000000000288E
:0E000A008312031324088A00230882000800D2
:1000180005208A110A128000840AA30A0319A40A77
:08002800F003031D0C28080081
:100030008316031306148614061586150616081073
:10004000881008118811081201308312A5000130B0
:10005000A600A0010130A1000130A20083160618FD
:10006000332872103428721483122508013A0130A3
:10007000031D0030F100F0017218F00A7108F0055C
:1000800003194528A5010130A600831686184A28C1
:1000900072104B28721483122608013A0130031D96
:1000A0000030F100F0017218F00A7108F005031930
:1000B0005C28A5010130A60083160619612872107C
:1000C0006228721483122008013A0130031D0030A7
:1000D000F100F0017218F00A7108F0050319732895
:1000E000A5010130A6008316861978287210792898
:1000F000721483122108013A0130031D0030F1000F
:10010000F0017218F00A7108F00503198A28A1019C
:100110000130A2008316061A8F28721090287214DC
:1001200083122208013A0130031D0030F100F00172
:100130007218F00A7108F0050319A1280130A10016
:06014000A2012E28A228F6
:02400E00F21F9F
:00000001FF
