:0A000000182800000000000000288E
:0E000A008312031321088A00200882000800D8
:1000180005208A110A128000840AA00A0319A10A7D
:08002800F003031D0C28080081
:1000300083160313081088100811881108128812FB
:1000400008178312081488100811881108128816DE
:10005000081B60280630FB001330FC00AD30FD00AB
:10006000FD0B3028FC0B3028FB0B30280000000073
:100070000810881408118811081688120330FB0034
:100080008A30FC005530FD00FD0B4428FC0B442851
:10009000FB0B442800000000081088100815881584
:1000A000081288120630FB001330FC00AD30FD0052
:1000B000FD0B5828FC0B5828FB0B582800000000AB
:0400C000212861286A
:02400E00F21F9F
:00000001FF
